S0130000636F6F7264656E61646F722E7372656381
S11300000C94AD000C94CC000C94CC000C94CC005B
S11300100C94CC000C94CC000C94CC000C94D1190E
S11300200C94CC000C94CC000C94CC000C94CC001C
S11300300C94CC000C94CC000C94CC000C940005D3
S11300400C94CC000C94CC000C94EC020C94CC00DA
S11300500C94CC000C94CC000C94CC000C94CC00EC
S11300600C94CC000C94CC000C94F9190C94CC0096
S11300700C94CC000C94CC000C941A030C94CC007B
S11300800C94CC000C94CC000C94CC009F18A818B1
S1130090F918F918F918F918AD18CE18E118F91863
S11300A0E418E718EA18F018436F6E74696B692D49
S11300B0322E362D323435302D676561613837364E
S11300C03020737461727465642E204E6F646520F1
S11300D069642025750A0025640A0025642E0052EF
S11300E0696D6520737461727465642077697468DE
S11300F02061646472657373200025732025732C5A
S1130100206368616E6E656C20636865636B207242
S113011061746520256420487A2C20726164696FBB
S1130120206368616E6E656C2025640A004D41434E
S113013020253032783A253032783A253032783AF0
S1130140253032783A253032783A253032783A25DB
S11301503032783A253032780A0011241FBECFEFAE
S1130160D0E1DEBFCDBF12E0A0E0B1E0EAE5F0E50A
S113017000E00BBF02C007900D92A23AB107D9F775
S11301801CE0A2EAB2E001C01D92A03AB107E1F777
S11301900E94AA030C942B280C940000DB018C9180
S11301A090E0E4ECF2E02191319128173907B9F09D
S11301B0B2E0E63DFB07B9F7E091D602F091D70231
S11301C0CF0101969093D7028093D602EE0FFF1FC2
S11301D0EC53FD4FDB018C9190E091838083089573
S11301E082E00C94780662E070E00E94220D8CEAB2
S11301F092E00E94080B81E090E09093AB02809320
S1130200AA020895AF92BF92CF92DF92EF92FF922B
S11302100F931F93CF93DF9300D0CDB7DEB78091B8
S1130220DA029091DB028230910509F465C084F40E
S1130230009769F1019709F026C184EA91E00E94D0
S1130240F30082E090E09093DB028093DA021BC11A
S11302508330910509F497C0049709F014C181E033
S113026090E00E94BB225C0181E090E00E94BB22EE
S11302707C0181E090E00E94BB226C0184E39BE05E
S11302800E943E249A83898300E010E0CEC064E398
S11302907BE086E791E00E947524892B41F488E88D
S11302A091E00E94D32484E00E947806ECC064E3C9
S11302B07BE08BE891E00E947524892B49F481E06E
S11302C090E09093DB028093DA020E940201DBC08B
S11302D064E37BE08AE991E00E947524892B09F0AC
S11302E0D2C084E090E09093DB028093DA0288E845
S11302F091E00E94D324C7C08091D5028F9380914E
S1130300D4028F938091D3028F938091D2028F93E2
S11303108091D1028F938091D0028F938091CF02EC
S11303208F938091CE028F938091CD028F93809191
S1130330CC028F938091CB028F938091CA028F93CA
S11303408091C9028F938091C8028F938091C702D4
S11303508F938091C6028F938091C5028F93809171
S1130360C4028F9385EB91E09F938F930E949D2409
S113037084EA91E00E94F30083E090E09093DB0232
S11303808093DA0244C08091D5028F938091D40285
S11303908F938091D3028F938091D2028F93809117
S11303A0D1028F938091D0028F938091CF028F934B
S11303B08091CE028F938091CD028F938091CC0255
S11303C08F938091CB028F938091CA028F938091F7
S11303D0C9028F938091C8028F938091C7028F9333
S11303E08091C6028F938091C5028F938091C4023D
S11303F08F9385EB91E09F938F930E949D248DEDC5
S113040091E00E94D3241092DB021092DA020FB61C
S1130410F894DEBF0FBECDBF36C001301105A1F484
S11304208081F70180830F5F1F4F61EE71E0CE0181
S113043001960E948524FC01009769F001151105BD
S113044061F78081D50105C00230110561F7808113
S1130450D6018C93E8CFB70183EE91E00E94752416
S1130460892B41F485EE91E09F938F930E949D2404
S11304700F900F90C5010E945323C7010E9453237C
S1130480C6010E94532380E091E0E4E3FBE0DF0136
S11304909C011D9221503040E1F71092D902109234
S11304A0D80282E1E4ECF2E0DF011D928A95E9F7DB
S11304B01092D7021092D6020F900F90DF91CF9135
S11304C01F910F91FF90EF90DF90CF90BF90AF906E
S11304D00895CF93DF93EC01633821F48CEA92E022
S11304E00E94060B88819981863B910541F18D3BE1
S11304F0910509F445C0892BE9F581E090E00E945B
S1130500DD046CEC72E080E00E948B034FEE51E05E
S113051061E870E08CEA92E00E94EC0A43EF51E05B
S113052062E970E087EB92E00E94030C62E070E005
S113053082EA92E00E942B0886EB90E018C082EADF
S113054092E00E943508892BC9F08091AA0290910B
S1130550AB02019759F71092AB021092AA0260E025
S113056071E082EA92E00E942B088DEB90E099837F
S1130570888304C01982188283E00BC081E009C01B
S113058082EA92E00E943508892BC1F30E9402019D
S1130590CDCFDF91CF9108952091D8023091D90227
S11305A0A9014F5F5F4F5093D9024093D802F901DC
S11305B0EC5CF44F8083882311F08A3039F4309353
S11305C0D9022093D80210820E94020181E00E9485
S11305D0780681E090E008951F920F920FB60F9273
S11305E011240BB60F922F933F934F935F936F9306
S11305F07F938F939F93AF93BF93EF93FF938CB1AC
S1130600E091360CF091370C309709F00995FF9181
S1130610EF91BF91AF919F918F917F916F915F9176
S11306204F913F912F910F900BBE0F900FBE0F90E3
S11306301F9018951F920F920FB60F9211240BB6AC
S11306400F922F933F934F935F936F937F938F9367
S11306509F93AF93BF93EF93FF9380919C00E0919E
S1130660340CF091350C309709F00995FF91EF9116
S1130670BF91AF919F918F917F916F915F914F91B6
S11306803F912F910F900BBE0F900FBE0F901F90B4
S1130690189581110CC01092900069B988E98AB943
S11306A0409395001092370C1092360C08958130C7
S11306B069F4109298006093990088E980939A00F5
S11306C040939D001092350C1092340C08958111C2
S11306D004C05D9BFECF6CB90895813031F48091E4
S11306E09B0085FFFCCF60939C000895CF93C82F97
S11306F08A3031F46DE08091DC020E94670302C00D
S11307008D3029F06C2F8091DC020E94670380E019
S113071090E0CF910895811105C07093370C6093D8
S1130720360C0895813021F47093350C6093340CA9
S113073008958093DC0282E191E090939D0C809374
S11307409C0C089546E063E080E00E94490380E049
S11307500C9499030E94630684E00E9468060E9438
S1130760A2030E94580581E00E9468060E94AC051D
S11307700E94B2042091380C8091DD029091DE0237
S1130780820F911D0E945F060E94010A0E942A099D
S113079060E070E088E291E00E94D4090E94F306D0
S11307A082E00E9468060E94EF038091DE028F932C
S11307B08091DD028F9388EA90E09F938F930E944B
S11307C0AF2487E00E94700687EF91E00E948006C4
S11307D00F900F900F900F900E943C09FDCFEF9265
S11307E0FF920F931F93CF93DF93CDB7DEB7289774
S11307F00FB6F894DEBF0FBECDBF8091DD0290919D
S1130800DE02009739F480913F0C898380913E0C7D
S11308108A8302C089839A838E010F5F1F4FC801A8
S11308200E94300C8FED90E09F938F930E94AF2431
S113083089811F928F938BED90E09F938F930E94F9
S1130840AF248A811F928F9387ED90E09F938F93BB
S11308500E94AF240E945419E090410CF12CFE2C0C
S1130860EE248091420CE80EF11C88E0F80111920C
S11308708A95E9F761E47CE0C8010E941D0C888533
S11308801F928F938F811F928F938E811F928F93CC
S11308908D811F928F938C811F928F938B811F92D6
S11308A08F938A811F928F9389811F928F938DE2F8
S11308B091E09F938F930E94AF24A801B7018DEC20
S11308C09BEA0E946917E0913602F091370209957C
S11308D0E0912102F09122020995E0910A02F0913F
S11308E00B0209950091420210914302F801099507
S11308F00FB6F894DEBF0FBECDBF892B41F0F801CF
S11309000995BC0180E890E00E94A12202C060E841
S113091070E01F928AE18F937F936F9380913502E9
S11309208F93809134028F93809120028F938091D2
S11309301F028F938AEF90E09F938F930E94AF24BE
S11309400FB6F894DEBF0FBECDBF28960FB6F8944D
S1130950DEBF0FBECDBFDF91CF911F910F91FF90EE
S1130960EF900895CF93DF9300D000D01F92CDB7BE
S1130970DEB78FB78D83F89444E050E0BE016F5F1B
S11309807F4F80E090E00E94580689819A818D3AD9
S11309909E4D19F48B819C8102C080E090E090937D
S11309A0DE028093DD028D818FBF0F900F900F9038
S11309B00F900F90DF91CF910895CF93DF9300D0E4
S11309C000D01F92CDB7DEB72DEA3EED3A832983DE
S11309D09C838B838FB78D83F89444E050E0BE01F1
S11309E06F5F7F4F80E090E00E9451068D818FBF42
S11309F00F900F900F900F900F90DF91CF9108956B
S1130A001F920F920FB60F9211240BB60F922F93D1
S1130A103F934F935F936F937F938F939F93AF9382
S1130A20BF93EF93FF938091E5029091E6020196C4
S1130A309093E6028093E5028091E3029091E402B0
S1130A4001969093E4028093E30280389105B9F40F
S1130A501092E4021092E3028091DF029091E0028E
S1130A60A091E102B091E2020196A11DB11D809313
S1130A70DF029093E002A093E102B093E2020E94AD
S1130A804008892B11F00E947507FF91EF91BF91E7
S1130A90AF919F918F917F916F915F914F913F9112
S1130AA02F910F900BBE0F900FBE0F901F901895B3
S1130AB0F89487B78C7F87BF80B7886080BF8BE04E
S1130AC083BF12BE88E081BF16BE80B78770E9F786
S1130AD087B7826087BF1092E6021092E50278948D
S1130AE008958091E5029091E6022091E50230910B
S1130AF0E60282179307A9F70895009751F022E3BD
S1130B0030E000002150310921153105D1F701975A
S1130B10F4CF089528E030E080E090E04AE050E02F
S1130B2060E170E0A5E6B0E0D49ADC98FA01319770
S1130B30F1F7D498DC9AFB013197F1F7CC998068EE
S1130B40FD013197F1F7215031092115310519F0D3
S1130B5096958795E9CF0895EF92FF920F931F938F
S1130B60CF93DF931F92CDB7DEB7D498DC988FB7BD
S1130B708983F894D49ADC9889E993E00197F1F792
S1130B80D498DC9A80E890E00197F1F729B383EFD9
S1130B9092E00197F1F724FD71C0B8E0A3E32EE6DB
S1130BA030E042E150E06AE070E0E5E7F0E0D49A3A
S1130BB0DC98A0FF07C0CB010197F1F7D498DC9A29
S1130BC0CF0106C0C9010197F1F7D498DC9ACA0194
S1130BD00197F1F7B15011F0A695E9CF0E948A056B
S1130BE08C0180E4E82E8CE0F82E0E948A05D7015F
S1130BF08E937D01BAE3EB16BCE0FB06B1F70E94CD
S1130C008A0529812FBF01301105D1F528E030E094
S1130C10A8015695479500FF04C08A01ECE80E2709
S1130C2001C08A01215031092115310589F7E0E419
S1130C30FCE02291022728E030E0A8015695479570
S1130C4000FF04C08A016CE8062701C08A01215014
S1130C5031092115310589F7ACE0EA33FA0749F780
S1130C600817190769F41092380C8AE18093390C3B
S1130C708CE480933A0C81E090E00BC089818FBFB3
S1130C8088E0E8E3FCE0DF011D928A95E9F780E063
S1130C9090E00F90DF91CF911F910F91FF90EF9013
S1130CA008959C01CB01E199FECFB9010C940B2767
S1130CB09C01CB01E199FECFB9010C94FB260C9465
S1130CC033240C942F240E94C8141092E702089530
S1130CD09091E702982B9093E702892F0C94CF14FC
S1130CE080959091E70289238093E7020C94CF14B6
S1130CF09091E70298279093E702892F0C94CF14E0
S1130D00CF93DF93EC0189919991009729F060E0EA
S1130D1070E00E94D409F7CFDF91CF910895EF924C
S1130D20FF920F931F93CF93DF938C017A01FC0101
S1130D3080819181009741F08A34910501F1F80195
S1130D401182108283E048C089EE92E00E944A0A30
S1130D50EC01209751F06C817D81CE0102960E94B6
S1130D602B080990D881C02DF4CF81E08093E8024C
S1130D708AE490E0F8019183808381E02DC0683893
S1130D80E1F789EE92E00E944A0AEC01209781F390
S1130D90CE010296E816F906D9F4BE0189EE92E076
S1130DA00E945E0AE0902303F09024038A859B85C9
S1130DB09093240380932303EC85FD85309719F0E9
S1130DC08E859F850995F0922403E0922303D0CF6A
S1130DD00990D881C02DDACFDF91CF911F910F9167
S1130DE0FF90EF9008951092E80289EE92E00E943D
S1130DF0460A60E070E080E291E00C94D4090F931D
S1130E001F93CF93DF93EC010091230310912403EC
S1130E101B870A875D874C873F872E878091E8026E
S1130E20882379F080E291E0909324038093230354
S1130E30CE0102960E942B081093240300932303EF
S1130E4002C07D836C83BE0189EE92E0DF91CF9175
S1130E501F910F910C94790ACF93DF93EC01809149
S1130E60E802882329F0CE0102960E944B0804C0B0
S1130E701F821E8219861886BE0189EE92E0DF91D8
S1130E80CF910C945E0A8091ED029091EE02892B31
S1130E9029F41092EC021092EB0208950E9471055D
S1130EA0E091ED02F091EE02228133814081518183
S1130EB0240F351F281B390B0480F581E02D309752
S1130EC069F04281538160817181460F571F481B2D
S1130ED0590B4217530780F79A01EECF280F391F99
S1130EE03093EC022093EB02089588E291E00C9495
S1130EF0F509EF92FF920F931F93CF93DF938C0129
S1130F00FC0180819181009799F089359105D9F090
S1130F10F8011182108283E068C08681978184176A
S1130F20950709F049C00480F581E02D3097A9F7B1
S1130F301092EE021092ED0289E590E0F80191839F
S1130F40808381E052C0673891F16238A9F7C0917B
S1130F50ED02D091EE02E12CF12C209769F3CE0141
S1130F600E942E0A892BF1F0AE0168E88E819F81E0
S1130F700E949F09892BA1F41F821E828C819D816E
S1130F80E114F10421F0F7019583848304C0909364
S1130F90EE028093ED021D821C820E944307D7CF8C
S1130FA00E9475077E010C80DD81C02DD6CFE091B3
S1130FB0ED02F091EE02BACFF093EE02E093ED026F
S1130FC0A481B581109709F4B7CF16968D919C91A1
S1130FD017978417950711F0FD01F2CF14968D91A0
S1130FE09C91159795838483EBCFDF91CF911F91CB
S1130FF00F91FF90EF900895CF93DF93EC010E943F
S113100075078E819F813091ED022091EE02892B2C
S113101091F0E32FF22F309771F0EC17FD0739F4BC
S113102080912303909124039783868310C00480C6
S1131030F581E02DF0CF80912303909124039F83C9
S11310408E833C832D83D093EE02C093ED02DF9117
S1131050CF910C944307CF93DF93EC010E94220AB3
S1131060CE01DF91CF910C94FC0721E030E0FC012C
S113107086819781892B11F020E030E0C901089521
S113108081E090E02091ED023091EE02232B11F4E7
S113109080E090E00895CF93DF93EC01E091ED02BE
S11310A0F091EE028E179F0769F48C819D819093D5
S11310B0EE028093ED020DC0848195818C179D070B
S11310C021F0FC013097C1F706C08C819D81958386
S11310D084830E9443071D821C821F821E82DF912B
S11310E0CF9108951F93CF93DF93EC01162FEA81DC
S11310F0FB813097D1F0909324038093230382E003
S11311008E83CE0104960995992787FD90950297C1
S1131110029710F0133839F4BE01CE01DF91CF915C
S11311201F910C949F0881E08E83DF91CF911F91D2
S11311300895FC01268120FD0C9472080895CF9235
S1131140DF92EF92FF920F931F93CF93DF93EC0103
S11311506B01E0902303F090240300912503109188
S11311602603F801EC17FD0739F0309709F44AC05B
S11311700190F081E02DF6CF209709F443C08E81D1
S1131180882309F11E820115110561F0C017D107EA
S113119029F0AE0167E8C8010E949908F8010081AE
S11311A01181F1CFEA81FB81309769F0CC15DD051F
S11311B051F0D0932403C093230340E050E063E84C
S11311C0CE0104960995E0912503F0912603CE17EC
S11311D0DF0769F48881998190932603809325031E
S11311E00DC0808191818C179D0721F0FC013097FF
S11311F0C1F704C08881998191838083F09224038C
S1131200E0922303DF91CF911F910F91FF90EF9014
S1131210DF90CF9008951F93CF93DF931092F7023E
S1131220C0912503D091260311E0209779F08F8196
S1131230882341F01E831F8240E050E062E8CE0123
S11312400E9472080990D881C02DEFCFDF91CF9111
S11312501F9108958AE8809322031092200310922C
S113126021031092400C1092260310922503109231
S113127024031092230308958091F70281110E94A0
S11312800B0970912103772309F451C0E0912003E5
S11312902E2F30E085E0E89FF0011124E850FD4F47
S11312A060816093F602418152815093F50240932C
S11312B0F402838194819093F3028093F2022F5F6E
S11312C03F4F2770332720932003715070932103DD
S11312D0009731F580912503909126039093F102B4
S11312E08093F0028091F0029091F102892BF9F041
S11312F08091F70281110E940B094091F4025091F0
S1131300F5026091F6028091F0029091F1020E9440
S11313109908E091F002F091F10280819181DECF91
S1131320613819F421E0FC0126830E949908809118
S1131330F7022091210390E0820F911D08952091DE
S113134021032830E1F0E0912003E20FE770E093FD
S1131350EF0235E0E39FF0011124E850FD4F608374
S1131360528341839483838381E0820F809321039A
S11313709091400C981730F48093400C03C081E0A6
S113138090E0089580E090E00895CF93DF93C091BA
S11313902303D09124030E949908D0932403C0937B
S11313A02303DF91CF910895AB0130912503209160
S11313B02603E32FF22FE817F907B1F0309721F055
S11313C00190F081E02DF7CF009771F0FC0130839C
S11313D02183909326038093250321E0268315829D
S11313E0148261E80C94C5090895009749F0FC0142
S11313F026812150223020F421E027832093F70214
S113140008950C94261A809127039091280300973D
S1131410C1F01092280310922703DC0114966D91F9
S11314207C9115971296ED91FC9113970995E09193
S11314302703F0912803309721F0808191810C9447
S1131440421A0895CF93DF93EC017B836A830E9451
S1131450710599838883DF91CF910895CF93DF93AA
S1131460EC010E94710528813981821B930B9C0138
S11314702F5F3F4F81E090E04A815B814217530721
S113148010F080E090E0DF91CF910895FC0111828B
S113149010820895FC01808191810895DC01ED9111
S11314A0FC91309731F080819181009729F0FC0103
S11314B0FACF80E090E00895CF010895DC01ED912A
S11314C0FC913097A9F0A0E0B0E020813181E617CB
S11314D0F70741F4109709F4DC012D933C93118232
S11314E0108208952115310519F0DF01F901EDCFBE
S11314F008950F931F93CF93DF938C01EB010E9408
S11315005E0A19821882C8010E944E0A009711F4DB
S1131510F80101C0FC01D183C083DF91CF911F91F9
S11315200F9108950F931F93CF93DF93EC018B01D9
S11315300E945E0A88819981F801918380831983CE
S11315400883DF91CF911F910F910895DC01ED91F4
S1131550FC9180E090E0309729F001960190F081B1
S1131560E02DF9CF0895009721F0FC01808191814D
S1131570089580E090E00895DC011996ED91FC91C6
S11315801A970280F381E02D309709F009940895A9
S11315900F931F93CF93DF9300D0CDB7DEB78C01A9
S11315A063E47CE0CE0101960E941D0CD8011996DB
S11315B0ED91FC911A970190F081E02D309729F07C
S11315C0BE016F5F7F4FC80109950F900F90DF91A7
S11315D0CF911F910F910895EF92FF920F931F9354
S11315E0CF93DF93EC018B017A014BEF51E00E9422
S11315F05F1BFA86E9866FEF71E0C801DF91CF9136
S11316001F910F91FF90EF900C943E0B0C94771B5D
S1131610CF93DF93EC0161E47CE083E49CE00E94DF
S11316201D0CCE01DF91CF910C94791B89E293E0DC
S11316300C94460AFC0173836283BC0189E293E043
S11316400C94790ABC0189E293E00C945E0ACF936E
S1131650DF93EC0189E293E00E944A0A009749F083
S1131660FC01228133812C173D0729F00E94B30A23
S1131670F5CF80E090E0DF91CF9108950F931F9311
S1131680CF93DF938B010E94270BEC01009731F07D
S11316901D830C83C8010E94EF1C8E83DF91CF91C0
S11316A01F910F910895CF92DF92EF92FF920F93C3
S11316B01F93CF93DF937C018B016A018BE293E04C
S11316C00E944A0AEC01009751F0EC81FD813097A9
S11316D011F0C8010995CE010E94B30AF3CFA60107
S11316E0B801C701DF91CF911F910F91FF90EF9047
S11316F0DF90CF900C94871B0F931F93CF93DF93AE
S113170000D0CDB7DEB70E94C81C8C018BE293E0F9
S11317100E944A0A009779F0DC011296ED91FC913F
S11317201397309729F089839A8309959A8189813F
S11317300E94B30AEFCF0115110549F0C8010F90BB
S11317400F90DF91CF911F910F910C947B1B0F9001
S11317500F90DF91CF911F910F9108950E94790D01
S11317600E940F0D0E94931B0E94C61C2FEF31E0B4
S113177040E05EE160E072E082E090E00C94A01C46
S1131780CF93DF93EC010E94D71C009761F00E9475
S1131790350CE0915002F0915102BE0183E59BE0CB
S11317A0099581E090E0DF91CF910895DC011B96CB
S11317B0ED91FC911C970280F381E02D309709F0A4
S11317C0099408950F931F93CF93DF93EC018B013A
S11317D061E47CE085E49CE00E94240C892B71F098
S11317E0EB85FC850190F081E02D309739F0B8014C
S11317F0CE01DF91CF911F910F910994DF91CF9189
S11318001F910F910895EF92FF920F931F93CF931F
S1131810DF93EC018B017A014EE052E00E94EC0A66
S1131820FC86EB8662E172E0C801DF91CF911F91E3
S11318300F91FF90EF900C943E0BFB0120813181BE
S1131840FC0131832083089542E050E00E94582433
S113185021E030E0892B11F020E030E0C901089547
S1131860BC0181E49CE00C941D0C2091E0033091B8
S1131870E10321153105B9F08091E2039091E3036E
S1131880C096EFE5F3E0AF014F52534048175907B4
S113189034F4DF01A20FB31F4C914193F4CF1092A3
S11318A0E1031092E0030895CF92DF92EF92FF924A
S11318B00F931F93CF93DF937C01C090E203D090EA
S11318C0E3036091DF0370E0E601E096C61BD70BEB
S11318D0C138D105D8F400E310E0061B170B615D95
S11318E07C4FA8010E94652460912D0370912E0302
S11318F08091E0039091E103680F791FA601C7016D
S1131900800F911F0E946524CE0102C080E090E008
S1131910DF91CF911F910F91FF90EF90DF90CF90C7
S113192008954091E2035091E3034817590798F052
S11319302091E0033091E103280F391F3093E10334
S11319402093E003481B590B5093E3034093E203B5
S113195081E090E0089580E090E008959093E3039F
S11319608093E20308958091E0039091E103815A0A
S11319709C4F08958091DF0390E0815D9C4F089512
S11319808091E2039091E303089580E39091DF0353
S1131990891B11F48091E00308950E94C50C2091E5
S11319A0E2033091E303A901480F511DCA010895D0
S11319B01F93CF93DF93EC011091DF03812F90E00D
S11319C08C179D076CF00E94CD0C8C0F9D1F8138E5
S11319D0910530F41C1B1093DF0381E090E002C0FA
S11319E080E090E0DF91CF911F910895CF93DF9332
S11319F0EBE4FCE0119211928CE0EF37F807D1F799
S1131A00C3E4DCE068E172E0CE010E941D0C229682
S1131A108CE0CB34D807B1F7DF91CF9108951092C1
S1131A20E1031092E0031092E3031092E20380E3D7
S1131A308093DF038FE593E090932E0380932D032F
S1131A400C94F60CEF92FF920F931F93CF93DF93B6
S1131A5000D0CDB7DEB78C0169837A830E940F0D65
S1131A606981E62E7A81F72E81E8E816F10418F0F0
S1131A7080E8E82EF12CA701B80180912D03909104
S1131A802E030E946524F092E303E092E203C7016F
S1131A900F900F90DF91CF911F910F91FF90EF90D6
S1131AA0089524E3EBE4FCE0DC0101900D922A9517
S1131AB0E1F788E0E3E4FCE0DB0101900D928A9514
S1131AC0E1F7089524E3FC01ABE4BCE001900D923E
S1131AD02A95E1F788E0FB01A3E4BCE001900D92B4
S1131AE08A95E1F7089568E172E085E49CE00C943E
S1131AF0240C80E391E00E94DA1A88E391E00C94CC
S1131B00DA1A0F931F93CF93DF9388E391E00E9437
S1131B10F81A8C01009709F180E391E00E94F81A09
S1131B20EC01F80191838083009731F4B80188E3D4
S1131B3091E00E941D1B11C00E94540CFE01E0584C
S1131B40FF4F91838083BE016A547F4FCE018E572D
S1131B509F4F0E94510DC80102C080E090E0DF91C8
S1131B60CF911F910F910895FC0180819181BC0157
S1131B706A547F4F8E579F4F0C94510DCF93DF9330
S1131B80EC01BC0188E391E00E94421B892B69F0BF
S1131B906881798180E391E00E941D1BBE0188E386
S1131BA091E0DF91CF910C941D1BDF91CF910895AB
S1131BB0CF93DF93EC01BC0188E391E00E94421BC8
S1131BC0892BA9F00990D881C02DFE01E058FF4F60
S1131BD060817181CE010E94220DBE016A547F4F43
S1131BE0CE018E579F4FDF91CF910C94620DDF9100
S1131BF0CF910895FC0120818181E22FF82FE60F17
S1131C00F11DE60FF11DEE57FF4F8081918108957C
S1131C10E0915402F09155020994E0913E02F09152
S1131C203F020994E0914002F09141020994E0914D
S1131C304202F0914302309709F0099480E090E069
S1131C400895CF93DF93EC01009789F0888D998DE7
S1131C500E944A0A009759F0E0913A02F0913B023F
S1131C60AC01BE018CEE9FE0DF91CF910994DF912E
S1131C70CF910895EF92FF920F931F93CF93DF9329
S1131C8000D0CDB7DEB78C01FC01458980915C01A1
S1131C9090915D0150E08417950708F4AC015093CE
S1131CA0800C40937F0CEE24E394F12C02C0EE0CE4
S1131CB0FF1C4A95E2F7F1E0EF1AF108E0914202C5
S1131CC0F09143020995009711F481E090E08E9D14
S1131CD0B0018F9D700D9E9D700D112461157105CD
S1131CE049F069837A830E94610669817A810E943E
S1131CF0A122BC01980141E25EE0C80104960F9064
S1131D000F90DF91CF911F910F91FF90EF900C9462
S1131D10FF0688E491E00E94DA1A80E491E00E94D0
S1131D20DA1A80E591E00C94DA1A9F92AF92BF928E
S1131D30CF92DF92EF92FF920F931F93CF93DF9393
S1131D405C018B01EA01DB011496ED91FC9115977E
S1131D50E080F180C280D3809C886115710599F17F
S1131D60888D998D0E945E0AF801828193810E9478
S1131D70BE0DD80114966D917C91159780E491E085
S1131D800E941D1BB80188E491E00E941D1B888DF0
S1131D90998D0E944A0A892B41F01C8A8091A30ADA
S1131DA08D8BCE010E943A0E0EC0CE0104960E9485
S1131DB02C07BE0187EF99E00E945E0ABE0180E510
S1131DC091E00E941D1B292D30E0A501B601C70139
S1131DD0DF91CF911F910F91FF90EF90DF90CF9003
S1131DE0BF90AF909F900C94B410CF92DF92EF927B
S1131DF0FF920F931F93CF93DF937C016B0180912C
S1131E00F609811109C081E08093F6090E946106F8
S1131E109093F5098093F4098091F4099091F50960
S1131E20892B31F481E090E09093F5098093F409D3
S1131E308091F4099091F5099C012F5F3F4F3093F5
S1131E40F5092093F4099093600C80935F0C87EF5D
S1131E5099E00E944A0AEC01009761F065E47CE095
S1131E60CE0102960E94240C892B19F5CE010E9402
S1131E70B30AF1CF80E591E00E94F81AEC010097D3
S1131E8009F49AC065E47CE0CE0102960E941D0C20
S1131E901C8A8091A30A8D8BCE014696998F888FD8
S1131EA01F8A1E8A0E94460ABE0187EF99E00E949B
S1131EB0790A888D998D0E94A60A08970CF07CC037
S1131EC088E491E00E94F81A8C01009709F464C038
S1131ED080E491E00E94F81AD80115969C938E93A1
S1131EE01497892B09F453C00E94810DF801938340
S1131EF082830480F581E02D892B09F443C080910D
S1131F005D0C90915E0C009719F4809158018F5FDD
S1131F108483F182E082D382C2822091650C309165
S1131F20660C888D998DB8012130310519F40E9411
S1131F30920A02C00E94790A888D998D0E944A0AE9
S1131F400817190719F4CE010E943A0E80919B0AD2
S1131F5090919C0AA0919D0AB0919E0A0196A11DA0
S1131F60B11D80939B0A90939C0AA0939D0AB09301
S1131F709E0ADF91CF911F910F91FF90EF90DF9018
S1131F80CF900895BF0180E491E00E941D1BB80129
S1131F9088E491E00E941D1B888D998D0E94A60AF9
S1131FA0892B51F4BE0187EF99E00E945E0ABE01BD
S1131FB080E591E00E941D1B21E030E044E050E008
S1131FC0B601C701DF91CF911F910F91FF90EF9060
S1131FD0DF90CF900C94B410DF92EF92FF920F93A6
S1131FE01F93CF93DF93EC018B01D42E009709F458
S1131FF0B3C0888D998D0E944A0A7C01009709F428
S1132000ABC06AE0D70112968D919C9113970E9400
S1132010FA0D20915F0C3091600C8217930721F028
S1132020C7010E94B30AE9CFD7011496ED91FC9140
S11320301597309709F490C00130110509F441C097
S11320401CF50115110509F07BC000919F0A109140
S1132050A00A2091A10A3091A20A0F5F1F4F2F4FAF
S11320603F4F00939F0A1093A00A2093A10A309334
S1132070A20A8091A30A8D8B8C898D0D8C8BAE0165
S1132080B70180E090E05FC00230110529F0033011
S1132090110509F461C054C08091A30A8D8B8C8909
S11320A08D0D8C8B9481891728F0AE01B70182E0E5
S11320B090E049C0CE010E943A0EF70182819381DB
S11320C036C00091970A1091980A2091990A30918C
S11320D09A0A0F5F1F4F2F4F3F4F0093970A109399
S11320E0980A2093990A30939A0A2D892D0D2D8BE5
S11320F030E080915A0190915B018217930730F48C
S11321008091A30A8D8B8C898F5F8C8B9C898481B1
S1132110981728F0AE01B70181E090E014C0CE0119
S11321200E943A0ED70112968D919C911397DF91DC
S1132130CF911F910F91FF90EF90DF900C94B40D0D
S1132140AE01B701C801DF91CF911F910F91FF90AC
S1132150EF90DF900C94950EDF91CF911F910F912A
S1132160FF90EF90DF900895FC01CB01BA01309706
S113217011F0A9010994089580E190E008958091F7
S1132180E60A882361F08091E20A811108C081E0A7
S11321908093E20AE0916802F0916902099408953B
S11321A08091E60A882379F08091E20A882359F025
S11321B08091BB0A811107C01092E20AE0916A0281
S11321C0F0916B02099408958091E30A811106C08D
S11321D08091E50A811102C00E94D0108EE89CE033
S11321E00C94561A1092E60A892B29F0E0916802A1
S11321F0F091690204C0E0916A02F0916B020994C3
S11322002091E60A222369F0009711F481E090E01E
S113221020E030E043E351E1BC0185EA9AE00C940C
S1132220FF0608951092E20A1092E50A1092E80A55
S11322301092E70A81E08093E60A88ED9AE00E9412
S1132240460A8EE591E00E94DA1A8FE090E00C9441
S1132250001181E08093E60A8FE090E00E94001173
S113226081E090E008958091BB0A8823D1F08091A9
S11322708800909189002091B50A3091B60A821B9A
S1132280930B97FD0EC01092BB0A68E172E089EBD4
S11322909AE00E941D0C68E172E087EB9AE00E94CC
S11322A01D0C8091E70A9091E80A8B3221E0920795
S11322B001F18A3321E0920711F0892B91F5809185
S11322C0E40A882329F08091E40A81508093E40A87
S11322D08091E30A811106C08091E50A811102C050
S11322E00E94BF1080E090E00E9400118BE291E018
S11322F012C08091680190916901892B01F30E94B9
S1132300E4108091E50A811112C08FE090E00E94F0
S113231000118AE391E09093E80A8093E70A81E050
S113232008951092E80A1092E70A83E008958091D4
S1132330E50A8F5F8093E50A8091E50A833028F3EC
S11323401092E50A0E94E410E0CF2F923F924F9240
S11323505F926F927F928F929F92AF92BF92CF9231
S1132360DF92EF92FF920F931F93CF93DF93CDB73A
S1132370DEB7EE970FB6F894DEBF0FBECDBF5C019B
S11323804B018091E40A8111BAC161E47CE083E4E9
S11323909CE00E941D0C0E94730D3C01E0918C0294
S11323A0F0918D0209958C0197FD60C12C0142E0EA
S11323B0440E511C53E3451651040CF057C10E94BE
S11323C0BA0CA801BC01CE0101960E946524E1E08B
S11323D0F0E0EC0FFD1FE00FF11F1082FE01E00F93
S11323E0F11F80E182830E94350C0E94810D7C01E3
S11323F0009709F43EC18091BB0A8130B1F469EBC6
S11324007AE085E49CE00E94240C892B89F467EB34
S11324107AE085E49CE00E94240C31E020E0892BE2
S113242009F430E0032F122F05C000E010E002C0D1
S113243001E010E08091650C9091660C029731F5F3
S113244081E08093BB0A68E172E089EB9AE00E9424
S1132450240C65E47CE0892B19F089EB9AE00AC02E
S113246089EB9AE00E94240C892B31F465E47CE02A
S113247087EB9AE00E941D0C80918800909189005E
S1132480805E934E9093B60A8093B50A0E94D01052
S113249088ED9AE00E944A0A6C0194E8292E93E0A0
S11324A0392EC114D10491F1B6016E5F7F4F85E4DA
S11324B09CE00E94240C892B21F1409188005091CA
S11324C08900F601848195812091650C3091660C18
S11324D021303105B1F02091BB0A211112C09A01BB
S11324E02A553109841B950BB1010E94A122280FA2
S11324F0391F8091880090918900821B930B97FD6E
S1132500F8CFC6010E94B30A6C01CBCFCC24C3948C
S1132510D12C672811F4C12CD12C81E08093E30ADB
S1132520409188005091890058AF4FAB0E94BF1072
S1132530012B09F005C10E94551A009188001091E1
S11325408900312C612C40916002509161025AAF94
S113255049AF40919002509191025CAF4BAF4091D2
S11325605E0250915F025EAB4DAB8091880090910A
S1132570890020916A0130916B014FA958AD240F55
S1132580351F821B930B712C97FFDDC0809188004F
S11325909091890020916C0130916D01821B930B05
S11325A0801B910B97FF13C04091880050918900C4
S11325B05CAB4BAB0E940F0D0E94B30C60E870E063
S11325C0E9ADFAAD09951816190604F703C080E0C1
S11325D090E026C00E94AE0CEBADFCAD099597FDD2
S11325E013C00E94B30CFC012181808181110BC0B6
S11325F0233149F461E47CE085E49CE00E94240CEE
S1132600892B29F401C0739480E090E004C03BA8B6
S11326106CA881E090E0892B09F4B8CF81E090E0C8
S11326200091880010918900892B31F571108BC0BD
S1132630C114D10491F0C7010E94D80D0E94CD0CA1
S1132640BC018DAF7EAF0E94BA0C6DAD7EADEDA91D
S1132650FEA909950E94D01088CFB201CE0101963F
S1132660EDA9FEA909950E94BF107FCF45E050E077
S113267048C044E050E045C08091690C90916A0CD8
S1132680892B09F0B2C080917D0C90917E0C892B2E
S113269009F0ABC08091650C9091660C029709F427
S11326A0A4C001E010E00E94D010C7010E94D80D20
S11326B0C7010E94BE0DC114D10409F047C0011521
S11326C0110509F043C08091BB0A81113FC00E94EB
S11326D0541A8AED9AE00E94561A8AED9AE00E94F2
S11326E0BC1A8AED9AE00E94B21A1092E30A77208B
S11326F009F45AC08091E40A8F5F8093E40A41E0B0
S113270050E021E030E0B401C5010E94B410EE961F
S11327100FB6F894DEBF0FBECDBFDF91CF911F91EE
S11327200F91FF90EF90DF90CF90BF90AF909F906C
S11327308F907F906F905F904F903F902F9008956F
S1132740712C312C612C00E010E0ADCF71100CC065
S1132750E0905E02F0905F020E94CD0C2C010E947A
S1132760BA0CB201F70109950115110509F4AFCFAF
S11327708091BB0A8111ABCF88ED9AE00E944A0A8E
S11327807C010097D9F0B7016E5F7F4F85E49CE030
S11327900E94240C892B21F0F7013482658297CFA3
S11327A0C7010E94B30AECCFCD2829F4012B19F4F8
S11327B042E050E0A6CF40E050E0A3CF8EE591E0A8
S11327C00E94F81A7C01009709F481CF65E47CE04B
S11327D0C70102960E941D0CF70134826582B7017D
S11327E088ED9AE00E94790A72CF0E94BF1081E0BE
S11327F08093E50A01E010E058CF0F931F93CF9325
S1132800DF9300D0CDB7DEB78C014115510591F0AF
S1132810FA018281938169837A830E94D80D698148
S11328207A81C8010F900F90DF91CF911F910F9182
S11328300C94A5110F900F90DF91CF911F910F91E0
S113284008950F931F93CF93DF93E0919002F0913B
S11328509102099597FD80C00E94B30CEC01888118
S1132860882361F11092E40A61E47CE085E49CE051
S11328700E94240C892BC9F00E94D0108AED9AE0A2
S11328800E94561A8AED9AE00E94BC1A8AED9AE0D8
S11328900E94B21A1092E50AE0912502F0912602F4
S11328A0DF91CF911F910F91099468E172E085E463
S11328B09CE00E94240C892BF9F64EC0898180315A
S11328C009F04AC082E08093E40A61E47CE085E494
S11328D09CE00E94240C892B71F183E1898363E4D9
S11328E07CE085E49CE00E941D0C61E47CE083E4D0
S11328F09CE00E941D0C0E94350CE0918C02F0912A
S11329008D02099597FD28C081E08093E40A8093A5
S1132910E50A0E94BF10C0915E02D0915F020E943E
S1132920CD0C8C010E94BA0CB801FE01DF91CF914D
S11329301F910F91099468E172E085E49CE00E9484
S1132940240C892B49F081E08093E50ADF91CF9133
S11329501F910F910C94BF10DF91CF911F910F9194
S11329600895FC01099421E030E03093740C209325
S1132970730CE0912302F0912402099481E090E029
S11329800895E0910C02F0910D02099480E00895FD
S11329908AB387608ABB8BB387608BBB08959BB374
S11329A0987F82FF02C030E001C034E080FF02C0A3
S11329B020E001C022E08695817041E08427892BC4
S11329C0832B822B8BBB089581E090E0089581E0F6
S11329D090E00895C0988FB9779BFECFC09A089570
S11329E0C09880648FB9779BFECF8FB11FB8779B57
S11329F0FECF8FB190E0982F88271FB8779BFECF2A
S1132A002FB1C09A822B0895C0988FB9779BFECFBF
S1132A107FB9779BFECF6FB9779BFECF1FB8779BAB
S1132A20FECFC09A0895C098E62FE068EFB9779B6F
S1132A30FECF76956795607C6FB9779BFECF232B8D
S1132A4089F460E0262F30E02417350748F4FC01B0
S1132A50E20FF31F20812FB9779BFECF6F5FF2CF78
S1132A60C09A089520E030E0542F521BC9F3FC01B2
S1132A70E50FF11D319750815FB9779BFECF2F5F32
S1132A803F4FF2CFC0982EE32FB9779BFECF40E0A3
S1132A90242F30E02617370748F4FC01E20FF31F18
S1132AA020812FB9779BFECF4F5FF2CFC09A089554
S1132AB0C0981FB8779BFECF8FB1C09A08951F931B
S1132AC0CF93DF93182FC0918800D09189000E9482
S1132AD05815812351F42091880030918900205D9C
S1132AE032402C1B3D0B37FDF2CFDF91CF911F916C
S1132AF00895CF93DF93C0918800D09189000E94FC
S1132B00581583FF0AC08091880090918900805DE8
S1132B1092408C1B9D0B97FDF2CFDF91CF910895CE
S1132B2089B7806489BF83E090E00E94EA1481E061
S1132B308093EE0A0895CF93C82F85E190E00E9418
S1132B40F014BC01607ECF716C2B85E190E0CF91D5
S1132B500C94041580B38295817090E0089581B13E
S1132B6086FB882780F990E00895C0982FE72FB955
S1132B70779BFECF2FB140E0242F30E02617370794
S1132B8054F41FB8779BFECF5FB1FC01E20FF31F33
S1132B9050834F5FF1CF81E090E00E947D05C09AA1
S1132BA00895CF93DF931F92CDB7DEB761E070E055
S1132BB0CE0101960E94B51588E090E00E94EA14C7
S1132BC088E090E00E94EA140F90DF91CF9108957D
S1132BD01092EE0A0E94791586E090E00E94EA14B1
S1132BE089B78F7B89BF0E9B0C94D1150895809172
S1132BF0EB0A813081F48091EA0A882321F00E9453
S1132C0090151092EA0A8091E90A882321F00E9423
S1132C10E8151092E90A8091EB0A81508093EB0A3F
S1132C200895EF92FF920F931F93CF93DF931F9218
S1132C30CDB7DEB78C01F62EE72E8091EB0A8F5FBD
S1132C408093EB0A89E090E00E94EA1482E08F0D01
S1132C50898361E070E0CE0101960E9442156F2DD8
S1132C607E2DC8010E9442150E94F71580E090E075
S1132C700F90DF91CF911F910F91FF90EF900895E6
S1132C80EF92FF920F931F93CF93DF9300D01F9285
S1132C90CDB7DEB78C017B010E9B4DC08091EB0A52
S1132CA08F5F8093EB0A61E070E0CE0103960E948F
S1132CB0B5156B818DEF860F8D37C8F570E06250C6
S1132CC07109E616F70698F1C8010E94B51562E08D
S1132CD070E0CE0101960E94B5158A8187FF14C069
S1132CE029812D522093810C8F778093880C332770
S1132CF027FD30953093540C2093530C90E090931F
S1132D00520C8093510C02C082E08B830E9B09C04D
S1132D10B79903C00E94D11504C08EE691E00E94C9
S1132D20F5090E94F7158B8190E0029706C00E9476
S1132D30D1150E94F71580E090E00F900F900F904E
S1132D40DF91CF911F910F91FF90EF900895CF9352
S1132D50DF93EC0188819981009701F188369340D3
S1132D6021F01982188283E01EC06238D9F40E94CF
S1132D700F0D8091EF0A9091F00A9093560C809376
S1132D80550C0E94B30C60E870E00E9440160E944B
S1132D90AE0CE0913C02F0913D02099588E693E087
S1132DA09983888381E0DF91CF9108958091EE0A21
S1132DB081110FC08091EB0A882321F081E0809378
S1132DC0EA0A07C081E08093EB0A0E9490150E94F2
S1132DD0F71581E090E00895CF938091EE0A88235F
S1132DE0B1F08091EB0A882321F081E08093E90A15
S1132DF00EC0C1E0C093EB0A0E94581583FF03C0C4
S1132E00C093E90A02C00E94E8150E94F71581E008
S1132E1090E0CF9108951F93CF93DF938091EB0AB5
S1132E20811118C081E08093EB0A8091EE0A811130
S1132E3005C00E94D616C1E0D0E002C0C0E0D0E0D8
S1132E408091EE0A811108C00E94F715CD2B11F074
S1132E500E94EC1681E00EC082E00E945F1510B360
S1132E6016FB112710F9CD2B11F00E94EC160E94CD
S1132E70F715812F90E0DF91CF911F910895CF93A3
S1132E80DF93EC018091EB0A8F5F8093EB0AD09380
S1132E90ED0AC093EC0A0E9479152B9785E08C9F6C
S1132EA0B0018D9F700D11246B597E4B88E190E029
S1132EB00E9404158091EE0A882321F083E090E0BB
S1132EC00E94EA140E94F71581E090E0DF91CF910F
S1132ED008950F931F93CF93DF9300D000D0CDB705
S1132EE0DEB79A8389837C836B838A018091EB0AA2
S1132EF08F5F8093EB0A20E030E042E050E068E628
S1132F0071E0CE0101960E94131520E030E042E00A
S1132F1050E06AE671E0CE0103960E941315011594
S1132F20110549F021E030E048E050E060E671E04E
S1132F30C8010E9413150E94F7150F900F900F906F
S1132F400F90DF91CF911F910F91089580E488BF76
S1132F508EE691E00E94F5098091820C9091830C99
S1132F609093F00A8093EF0A81E090E008959091A5
S1132F70EB0A9F5F9093EB0A0E949B150C94F71544
S1132F80CF93DF938091EB0A8F5F8093EB0A85E107
S1132F9090E00E94F014EC010E94F715CE018F71AD
S1132FA09927DF91CF910895FF920F931F93CF93A9
S1132FB0DF9300D0CDB7DEB78C018091EB0A8F5F31
S1132FC08093EB0A8091570C9091580C892B49F00F
S1132FD00E94C017F82E8091570C81500E949B15B7
S1132FE001C0F12C83E090E00E94EA1482E00E9488
S1132FF05F1585E090E00E94EA1424EF31E0849BA1
S113300037C02091820C3091830C3A83298320911C
S1133010650C3091660C2430310559F4B8016150C7
S1133020710920E030E042E050E0CE0101960E94B8
S113303013150E94581583FD05C00E94F71582E000
S113304090E025C00E9479158091EE0A811102C09A
S11330500E94E8152091570C3091580C232B19F03D
S11330608F2D0E949B150E94F71580E090E00FC001
S1133070215031092115310511F62091570C309159
S1133080580C232BD1F28F2D0E949B15D6CF0F9075
S11330900F90DF91CF911F910F91FF900895CF93DF
S11330A0DF93EB010E941116CE01DF91CF910C94B6
S11330B0D4170F931F93CF93DF938091EB0A811161
S11330C022C081E08093EB0A8091EE0A811105C051
S11330D00E94D61601E010E002C000E010E082E099
S11330E00E945F1583E190E00E94F014C82FDD2751
S11330F0C7FDD095AD97012B11F00E94EC160E94EC
S1133100F715CE0102C080E090E0DF91CF911F91CE
S11331100F9108950F931F93CF93DF931F92CDB711
S1133120DEB78B016115710509F460C08E3091051D
S113313008F05FC0FC01EA5BFF4F0C94B52281E00C
S113314090E02091EE0A211147C080E090E044C055
S11331508091EC0A9091ED0A3FC00E94C01727EEBF
S11331603FEFF80131832083E5E7F2E020E030E02F
S1133170408150E032968417950754F0F901EE0F20
S1133180FF1FEC58FD4F8081992787FD909524C03F
S11331902F5F3F4F2830310559F725C08091EB0A46
S11331A08F5F8093EB0A83E190E00E94F01499838F
S11331B00E94F7159981892F992787FD90958D97FE
S11331C00BC00E94591808C08BE090E005C08AE14A
S11331D090E002C087EE9FEFF8019183808303C0E3
S11331E0FB011182108280E090E005C082E090E053
S11331F002C081E090E00F90DF91CF911F910F9179
S113320008959091EB0A9F5F9093EB0A60E0782F0A
S113321083E190E00E9404150C94F7158130910528
S1133220B1F050F086309105D1F00797B9F5CB0194
S11332308D960E9401192FC06130710519F40E9406
S1133240D61629C0672B69F50E94EC1624C0CB0161
S11332500B97409730F5CB010E943F171CC0CB0160
S113326049964A97F0F4E6E7F2E081E090E02081A5
S1133270332727FD309532962617370724F0019619
S113328088309105A1F7FC01EE0FFF1FEE58FD4FAA
S113329081810E94B71780E090E0089581E090E07A
S11332A0089582E090E00895CF93CFB7F8940E94F8
S11332B0C21989B78F7B89BF8AB780638ABF80E4CC
S11332C088BFCFBFDD9A8AEF90E00E947D05DE982B
S11332D08FE790E00E947D05DE9A8DE790E00E94E2
S11332E07D0581E090E00E94EA1480E40E945F156D
S11332F081E190E00E94F014BC016F7E777F6062F0
S113330081E190E00E94041560E075E082E190E0C4
S11333100E94041587E190E00E94F014BC017062E1
S113332087E190E00E9404156FE770E08CE190E083
S11333300E94041560E070E089E190E00E940415A9
S113334060E070E08AE190E00E94041540E050E003
S113335060E070E08FEF9FEF0E9469178AE190E0D0
S11333600E943F1783ED9FEF0E9401190E94D1151F
S113337060E070E08EE691E00E94D40981E090E084
S1133380CF91089580B5846080BD0E94271ED69A8F
S1133390D59ABF988E988C981698DE9AC09AC09A3F
S11333A008951F920F920FB60F9211240BB60F922D
S11333B02F933F934F935F936F937F938F939F9339
S11333C0AF93BF93EF93FF930E94A617FF91EF91E2
S11333D0BF91AF919F918F917F916F915F914F9129
S11333E03F912F910F900BBE0F900FBE0F901F9027
S11333F018951F920F920FB60F9211240BB60F92CD
S11334002F933F934F935F936F937F938F939F93E8
S1133410AF93BF93EF93FF93EDE7F0E08081817C5E
S113342080830E94030AFF91EF91BF91AF919F9116
S11334308F917F916F915F914F913F912F910F9059
S11334400BBE0F900FBE0F901F9018959FB7F89466
S1133450EDE7F0E08081817C8083ECE7F0E080811F
S11334608E63808310928B00EAE8F0E01082109261
S11334708C0010928900109288008081856080837E
S11334809FBF08952FB7F894909387008093860088
S1133490ECE7F0E080818E638083EDE7F0E08081EB
S11334A0806180832FBF089508950895CF92DF929D
S11334B0EF92FF920F931F93CF93DF93EC010E943F
S11334C0D91A87E090E00E94D51AC880D980EA8092
S11334D0FB800091F50A1091F60A2091F70A3091C9
S11334E0F80AC01AD10AE20AF30AC60ED71EE81E69
S11334F0F91EC882D982EA82FB826093F50A70932E
S1133500F60A8093F70A9093F80A86E090E00E9406
S1133510D51ACC80DD80EE80FF800091F10A1091F5
S1133520F20A2091F30A3091F40AC01AD10AE20A8D
S1133530F30AC60ED71EE81EF91ECC82DD82EE8287
S1133540FF826093F10A7093F20A8093F30A9093D6
S1133550F40ADF91CF911F910F91FF90EF90DF90CC
S1133560CF900895FC01148215821682178210826E
S11335701182128213820895E9E5FCE0DC012D91A9
S11335803C91119740815181240F351F3183208351
S1133590EBE5FCE014968D919C9115972081318187
S11335A0820F931F91838083089560E070E0CB01C4
S11335B008950895CF93DF93EC014A815B8160E025
S11335C070E08C819D810E946E242A813B818881D8
S11335D09981289FA001299F500D389F500D1124D7
S11335E060E070E08E819F81DF91CF910C946E2416
S11335F0FC018281938120E030E028173907D1F063
S1133600A481B581A20FB31F4C91411110C081E078
S11336108C9380819181289FA001299F500D389F10
S1133620500D112486819781840F951F08952F5F73
S11336303F4FE3CF80E090E00895FC01268137817D
S11336404281538180E090E084179507C9F02617E2
S1133650370781F4A481B581A80FB91F2C911216E4
S113366014F421502C930480F581E02DE80FF91F08
S113367080810895A081B1812A0F3B1F0196E4CF78
S11336808FEF0895FC018681978168177907A0F070
S1133690A081B18142815381A49F9001A59F300DE7
S11336A0B49F300D1124280F391F81E090E0621778
S11336B0730720F080E0089580E090E00895EF9291
S11336C0FF920F931F93CF93DF93EC018B017A0149
S11336D00E941A0BF886EF8264E872E0C801DF9159
S11336E0CF911F910F91FF90EF900C943E0B0C948F
S11336F0220B0C94C00BDC011796ED91FC911897EA
S11337000190F081E02D309709F009940895DC01CF
S11337101796ED91FC9118970280F381E02D309774
S113372009F0099408958BEF9AE00C94460A90935B
S1133730FA0A8093F90A08958BEF9AE00C944A0AE6
S1133740EF92FF920F931F93CF93DF938C01EB01C2
S11337507A018BEF9AE00E944A0A0097D9F0DC01C3
S113376012962D913C9113972C173D0781F41696D0
S1133770ED91FC911797309769F09701AE01B8016C
S1133780DF91CF911F910F91FF90EF9009940E94C8
S1133790B30AE3CFDF91CF911F910F91FF90EF9088
S11337A008950895CF93DF93CEE2DBE068817981B9
S11337B020E030E041EF5BE188E19BE00E94FF06FE
S11337C00E946106688179810E94A12220E030E094
S11337D045E05CE1BC0188E09BE0DF91CF910C9473
S11337E0FF0680912E0B90912F0B20912C0B309182
S11337F02D0B880F991F2817390708F4C9019093D6
S11338002F0B80932E0B0C94D21BCF93DF930E942B
S11338100F0D0E94B30CEC01198218820E949C1BAC
S113382028813981009719F1FC0140854423F9F07E
S1133830FC0142815381F901EE0FFF1FEE0FFF1FC0
S1133840EC0FFD1F53834283FC01448155812F5F9C
S11338503F4FF901EE0FFF1FEE0FFF1FEC0FFD1F8F
S113386051834083398328830E94B30AD9CFC90185
S1133870880F991F880F991F02960E94AE0C8881A9
S11338809981892B31F08DEF9AE0DF91CF910C94DF
S1133890080BDF91CF910895AF92BF92CF92DF9240
S11338A0EF92FF920F931F93CF93DF9300D0CDB786
S11338B0DEB75B010E94B30C8C01FC01E080F18057
S11338C0FA82E9820E94C00C9701220F331F220F53
S11338D0331F2E5F3F4F82179307A8F00E5F1F4FD1
S11338E0C12CD12CCE14DF0471F0F8014281538134
S11338F060817181C5010E94A01B0C5F1F4FFFEF07
S1133900CF1ADF0AEFCF0F900F90DF91CF911F9165
S11339100F91FF90EF90DF90CF90BF90AF900895FC
S11339200F93013059F48091280B9091290B9093B7
S11339302F0B80932E0B0F910C94D21B0F91089593
S1133940EF92FF920F931F93CF93DF938B01EA01C2
S1133950790146E852E0BC018DEF9AE00E94EC0A3E
S11339601093290B0093280BD0932B0BC0932A0B95
S1133970F0922D0BE0922C0B80E99CE1DF91CF912A
S11339801F910F91FF90EF900C94971B0C94160BC2
S1133990E0919202F09193020995009739F0FC01AD
S11339A02281338130934E0C20934D0C0895CF9394
S11339B0DF93EC01E0919402F091950209952A813C
S11339C03B8130934E0C20934D0C21E030E0892B49
S11339D011F420E030E0C901DF91CF910895E09126
S11339E09602F09197020994CF92DF92EF92FF92A0
S11339F00F931F93CF93DF93CDB7DEB7E1970FB645
S1133A00F894DEBF0FBECDBF7C018E010F5F1F4F48
S1133A1081E3F80111928A95E9F78091320B8111C3
S1133A2007C081E08093320B0E9461068093330BC0
S1133A308091730C898B8091710C8B8B0E94730D18
S1133A40892B11F01C8A03C08091610C8C8B1D8A18
S1133A5021E02F8BE114F104D1F080915F0C90915F
S1133A60600C009711F0898F12C08091330B811183
S1133A7002C02093330B8091330B91E0980F909305
S1133A80330B898F90E09093600C80935F0C82E0FD
S1133A90D82ED88E8DEC9BEA9B8F8A8F0E94730D53
S1133AA0892B29F0DE8A8FEF89838A8306C065E437
S1133AB07CE0C8010E941D0CDE8A8DEC9BEA9D8F80
S1133AC08C8F61E47CE0CE0109960E941D0C0E945B
S1133AD0B30C9FA78EA70E94C00C99AB88ABC801FA
S1133AE00E94D9206C01EF2871F00E94D80C892B18
S1133AF041F00E94BA0CBC01C8010E94FC20C6011E
S1133B0002C08FEF9FEFE1960FB6F894DEBF0FBEB1
S1133B10CDBFDF91CF911F910F91FF90EF90DF9078
S1133B20CF90089581E090E00C94F41C80E090E044
S1133B300C94F41C0F931F93CF93DF93CDB7DEB790
S1133B40E1970FB6F894DEBF0FBECDBF0E94C00C44
S1133B508C010E94B30CAE014F5F5F4FB8010E940D
S1133B60D2218C01009719F48FEF9FEF4BC00E9474
S1133B70910C892BC9F3898990E09093740C8093FC
S1133B80730C2E89222331F18A8D9B8D8D3C3BEA67
S1133B90930711F0019641F7223019F028E030E044
S1133BA002C022E030E021503109C9010196181603
S1133BB0190684F4E1E0F0E0EC0FFD1FE20FF31FBF
S1133BC080818F3F81F3BE016F5F7F4F85E49CE06E
S1133BD00E941D0CBE01675F7F4F83E49CE00E943E
S1133BE01D0C8B8990E09093720C8093710C898DDD
S1133BF090E09093600C80935F0C9093680C80939A
S1133C00670CC801E1960FB6F894DEBF0FBECDBFB6
S1133C10DF91CF911F910F910895CF93DF93E0919E
S1133C208C02F0918D020995EC0197FD0CC00E9465
S1133C30350CE0915202F09153020995892B19F445
S1133C408FEF9FEF01C0CE01DF91CF91089587B32D
S1133C50876087BB88B3866088BB80E58DB981E0C7
S1133C608EB9089520E030E00296FC01329740813D
S1133C70442331F0FC0131974081240F311DF4CFEE
S1133C80C9010895FC01208130E0322F222781816F
S1133C90282B02C0220F331F6A95E2F7832F99273E
S1133CA0FA01E856FD4F208130E08223932328E077
S1133CB030E0241B350B02C0969587952A95E2F7D0
S1133CC008956F927F928F929F92AF92BF92CF92FC
S1133CD0DF92EF92FF920F931F93CF93DF938C01A8
S1133CE0EB016A0179012830310524F4A901B601F8
S1133CF0CE014AC0590123E0B594A7942A95E1F76F
S1133D004115510521F04801612C712C03C0D801E3
S1133D10FB0120C048E050E0B601CE01860D971D9E
S1133D200E94421EF40181934F01FFEF6F1A7F0A34
S1133D306A147B047CF3C501B7FE02C080E090E006
S1133D40A701477055274115510511F1080F191F97
S1133D50B60118C0CF018C1B9D0B8A159B051CF462
S1133D6081918D93F7CFC501B7FE02C080E090E04A
S1133D70A701477055274115510551F0080F191F28
S1133D8060E070E08C0F9D1F0E94421EF80180834A
S1133D90DF91CF911F910F91FF90EF90DF90CF9023
S1133DA0BF90AF909F908F907F906F9008958F9267
S1133DB09F92AF92BF92CF92DF92EF92FF920F93B6
S1133DC01F93CF93DF9300D0CDB7DEB70E94B30C1F
S1133DD08C0182E090E00E94910C892B19F480E020
S1133DE090E06BC0D80111968C91119790E0982FB8
S1133DF088272C91820F911D0E94270B7C0100972C
S1133E0071F30E94B30C4C01F7012681822F869531
S1133E108695869590E0422F477021E030E011F4BA
S1133E2020E030E0820F931F0E94910C892BB9F29D
S1133E30D70114960D911C911597C12CD12CF80122
S1133E4080818823C9F1F801A180B12CB60153E027
S1133E50759567955A95E1F7A60147705527680D42
S1133E60791D8A3190F09501CE0101960E94611E60
S1133E70D8018C9190E0880F991FBE016F5F7F4F2E
S1133E80815F934F0E941D0C12C01A821982950102
S1133E90CE0101960E94611ED801EC91F0E0EE0F74
S1133EA0FF1FE55BF34F89819A8191838083CA0C5C
S1133EB0DB1C0E5F1F4FC3CFC7010F900F90DF9124
S1133EC0CF911F910F91FF90EF90DF90CF90BF9013
S1133ED0AF909F908F900895DC0150E0E0E1F0E016
S1133EE0E61BF70BE21BF30B02C0440F551FEA95C8
S1133EF0E2F78C91852B8C9311968C911197842BDE
S1133F0011968C9308956F927F928F929F92AF92A5
S1133F10BF92CF92DF92EF92FF920F931F93CF93B2
S1133F20DF938C016B01EA017901283031051CF41F
S1133F304881C8015CC0390173E0759467947A952F
S1133F40E1F7C114D10421F04A01A12CB12C03C022
S1133F50D801FA0127C0F40141914F0128E030E073
S1133F60B601C8018A0D9B1D0E946C1FFFEFAF1A9A
S1133F70BF0AA614B7047CF3C30177FE02C080E035
S1133F8090E09701277033272115310509F43FC0CC
S1133F90C80FD91F488150E0B601621B730B685FDC
S1133FA07F4F1CC0CF018C1B9D0B861597051CF4FD
S1133FB081918D93F7CFC30177FE02C080E090E03A
S1133FC09701277033272115310509F1C80FD91F2F
S1133FD0488150E068E070E0621B730B02C05595A5
S1133FE047956A95E2F760E070E0800F911FDF91DA
S1133FF0CF911F910F91FF90EF90DF90CF90BF90E2
S1134000AF909F908F907F906F900C946C1FDF9176
S1134010CF911F910F91FF90EF90DF90CF90BF90C1
S1134020AF909F908F907F906F900895AF92BF92C2
S1134030CF92DF92EF92FF920F931F93CF93DF9370
S113404000D0CDB7DEB78C01FC018681E82EE69462
S1134050E694E694F12C282F277081E090E011F487
S113406080E090E0E80EF91EC70102960E94D80C89
S1134070009709F44AC00E94BA0CF8012281FC019D
S11340802083F8012381FC0121830E94BA0C02964B
S11340906C01A70160E070E00E946E24F8010481C5
S11340A01581E12CF12CF8012081222361F1F80122
S11340B0A180B12CC70133E0959587953A95E1F736
S11340C0422F50E0B701677077278C0D9D1D2A3170
S11340D030F0440F551F415F534F95010DC0FA0155
S11340E0EE0FFF1FE55BF34F208131813A83298373
S11340F09501AE014F5F5F4F0E94831FEA0CFB1CCA
S11341000E5F1F4FD0CF81E090E00F900F90DF91B2
S1134110CF911F910F91FF90EF90DF90CF90BF90C0
S1134120AF900895CF93DF93FC01DB0185E0EB01B1
S113413019928A95E9F78589837011F082E08C934E
S11341408789837021F082E012968C931297858977
S1134150837081F08789837069F0238D348D818D1C
S1134160928D2817390731F481E0848B12961C92C2
S1134170129701C0148A85898370823021F08330BC
S113418021F080E003C082E001C088E011968C93A6
S1134190119787898370823021F0833021F080E089
S11341A003C082E001C088E013968C93DF91CF9125
S11341B00895CF93DF9300D000D01F92CDB7DEB720
S11341C0BE016F5F7F4F0E949220898190E0039629
S11341D02A81820F911D2B81820F911D2C81820FC8
S11341E0911D2D81820F911D0F900F900F900F90B4
S11341F00F90DF91CF9108956F927F928F929F924B
S1134200AF92BF92CF92DF92EF92FF920F931F93E0
S1134210CF93DF9300D000D01F92CDB7DEB78C01CF
S11342207B01BE016F5F7F4F0E949220D80151969F
S11342308C91519780FB662460F8712C83E0660CA6
S1134240771C8A95E1F752968C91529780FB8824CB
S113425080F8912C94E0880C991C9A95E1F78628B3
S113426050968C9150978770882A53968C915397C7
S113427080FBAA24A0F8B12C25E0AA0CBB1C2A952B
S1134280E1F78A2854968C91549780FBCC24C0F88B
S1134290D12C36E0CC0CDD1C3A95E1F78C28F701E3
S11342A0808255962C9155972370F4E02F9F9001AE
S11342B0112456968C915697837040E1849FC001D7
S11342C01124282B57968C91A0E48A9FC0011124B5
S11342D0282BF7012183D80158968C915897828313
S11342E08981823049F459968C91599783835A96DF
S11342F08C91848375E001C073E06A8150E080E0B2
S113430090E09801260F311D452F470F019756174E
S113431051F0F901E80FF91FA081F701E40FF11D35
S1134320A0835F5FF1CF8B81823089F4F701E40FC2
S1134330F11DD8015B968C915B97808381E0840F9B
S1134340F701E80FF11D4E5F5C968C9180836C81C0
S113435050E020E030E0060F111D21503109852F77
S1134360840F90E0561751F0F801E20FF31F7085A7
S1134370F701E80FF91F70835F5FEFCF0F900F9085
S11343800F900F900F90DF91CF911F910F91FF909D
S1134390EF90DF90CF90BF90AF909F908F907F90E1
S11343A06F900895AF92BF92CF92DF92EF92FF92F7
S11343B00F931F93CF93DF937C016B01EA0163306A
S11343C071050CF4AFC0FC01808186FBAA24A0F81F
S11343D09181292F269526952370B92EB294B694EF
S11343E0B69463E0B622382F3770388B83FB3327BB
S11343F030F9398B84FB332730F93A8B85FB8827D6
S113440080F98B8BAC8A2D8B892F829583708E8B50
S1134410BF8A8281888F222371F13381848190E065
S1134420982F8827830F911D9A8F898F87010B5F9F
S11344301F4F223071F468E172E0CE010E941D0C1E
S1134440F70186818883858189838701095F1F4FEE
S11344501CC02330D1F4F7013D96DE0180E090E0EA
S11344603E2F2F2F42914D93019688309105D1F71D
S1134470032F122F0AC087010D5F1F4F68E172E0FE
S1134480CA010E941D0C1A8E198EBB20B1F1A11015
S11344900DC0F8012081818190E0982F8827820F38
S11344A0911D9C8F8B8F0E5F1F4F04C0898D9A8D39
S11344B09C8F8B8FF2E0BF120EC068E172E0CE01D8
S11344C008960E941D0CF801818188878081898764
S11344D00E5F1F4F1AC0F3E0BF1217C087E090E0D1
S11344E0F801E80FF91F2081FE01E81BF90B27876B
S11344F00197B0F7085F1F4F08C068E172E0CE0172
S113450008960E941D0C1C8E1B8E98012E193F09C3
S1134510C601821B930B98AB8FA71EA70DA7C216CB
S1134520D3061CF480E090E001C0C901DF91CF9173
S11345301F910F91FF90EF90DF90CF90BF90AF90BD
S11345400895AA1BBB1B51E107C0AA1FBB1FA617D6
S1134550B70710F0A61BB70B881F991F5A95A9F728
S113456080959095BC01CD010895EE0FFF1F059035
S1134570F491E02D0994CF93DF938230910510F4E8
S113458082E090E0E091980CF091990C20E030E00A
S1134590A0E0B0E0309739F14081518148175907C4
S11345A0B8F04817590771F482819381109729F064
S11345B013969C938E9312972CC09093990C80938E
S11345C0980C27C02115310531F04217530718F014
S11345D0A901DB0101C0EF019A01BD01DF010280E5
S11345E0F381E02DD7CF21153105F9F0281B390BC4
S11345F02430310580F48A819B816115710521F095
S1134600FB019383828304C09093990C8093980C4C
S1134610FE01329644C0FE01E20FF31F8193919391
S113462022503109398328833AC02091960C309165
S1134630970C232B41F42091020130910301309314
S1134640970C2093960C20910001309101012115C3
S1134650310541F42DB73EB7409104015091050155
S1134660241B350BE091960CF091970CE217F3079D
S1134670A0F42E1B3F0B2817390778F0AC014E5FCE
S11346805F4F2417350748F04E0F5F1F5093970C68
S11346904093960C8193919302C0E0E0F0E0CF0147
S11346A0DF91CF910895CF93DF93009709F487C0EA
S11346B0FC01329713821282C091980CD091990C0C
S11346C0209781F420813181280F391F8091960C25
S11346D09091970C8217930779F5F093970CE093D8
S11346E0960C6DC0DE0120E030E0AE17BF0750F439
S11346F012964D915C9113979D014115510509F155
S1134700DA01F3CFB383A28340815181840F951FD3
S11347108A179B0771F48D919C911197840F951FB3
S113472002969183808312968D919C911397938323
S113473082832115310529F4F093990CE093980CA8
S11347403EC0D9011396FC93EE9312974D915D915F
S1134750A40FB51FEA17FB0779F480819181840FB8
S1134760951F0296D90111969C938E938281938111
S113477013969C938E931297E0E0F0E08A819B81DC
S1134780009719F0FE01EC01F9CFCE0102962881C1
S11347903981820F931F2091960C3091970C281722
S11347A0390769F4309729F41092990C1092980CF7
S11347B002C013821282D093970CC093960CDF919F
S11347C0CF9108958F929F92AF92BF92CF92DF9232
S11347D0EF92FF92CF93DF93EC01688179818A8114
S11347E09B81611571058105910521F464E279EDE0
S11347F08BE597E02DE133EF41E050E00E94DB27A9
S113480049015A019B01AC01A7EAB1E40E94C827FF
S11348106B017C01ACEEB4EFA50194010E94D62794
S1134820C60ED71EE81EF91EF7FE06C081E0C81AA0
S1134830D108E10880E8F80AC882D982EA82FB82BA
S1134840C6019F77DF91CF91FF90EF90DF90CF90DB
S1134850BF90AF909F908F9008950C94E22386E0D0
S113486091E00C94E223A0E0B0E0809306019093E1
S11348700701A0930801B093090108950F931F93B2
S1134880CF93DF938C01FC0101900020E9F7CF0165
S1134890801B910B0E94BB22EC01009719F0B80118
S11348A00E947E24CE01DF91CF911F910F91089534
S11348B0FB01DC0104C08D910190801921F4415069
S11348C05040C8F7881B990B0895FB01DC0102C016
S11348D001900D9241505040D8F70895DC0101C079
S11348E06D9341505040E0F70895FB01DC018D9138
S11348F0019080190110D9F3990B0895FB01DC0193
S113490001900D920020E1F70895FC01A081B1818E
S1134910AD01109681F03D91FB0101900316011049
S1134920E1F7C9F7002011F4D00102C01E921196DC
S1134930FC01A083B183CA010895CF93DF93CDB75F
S1134940DEB7FE01359661917191AF0180919C0CA7
S113495090919D0C0E940025DF91CF9108950F93B3
S11349601F93CF93DF93CDB7DEB7FE0137966191E6
S113497071910CE91CE0D8018D919C91DC01139696
S11349802C911397286013962C93AF010E94002555
S1134990D801ED91FC912381277F2383DF91CF916F
S11349A01F910F9108950F931F93CF93DF93E0917D
S11349B09C0CF0919D0C238121FF1BC0EC0100E0B5
S11349C010E0899160919C0C70919D0CDB0118960C
S11349D0ED91FC911997882331F00995892B89F37E
S11349E00FEF1FEFEECF8AE00995892B11F4C80170
S11349F002C08FEF9FEFDF91CF911F910F91089528
S1134A002F923F924F925F926F927F928F929F92DA
S1134A10AF92BF92CF92DF92EF92FF920F931F93C8
S1134A20CF93DF93CDB7DEB72C970FB6F894DEBFE4
S1134A300FBECDBF7C016B018A01FC011782168277
S1134A40838181FFBDC1CE0101964C01F7019381A1
S1134A50F60193FD859193FF81916F01882309F4F9
S1134A60ABC1853239F493FD859193FF81916F0138
S1134A70853229F4B70190E00E943827E7CF512C02
S1134A80312C20E02032A0F48B3269F030F48032F3
S1134A9059F0833269F420612CC08D3239F08033AF
S1134AA039F4216026C02260246023C0286021C01C
S1134AB027FD27C030ED380F3A3078F426FF06C0C2
S1134AC0FAE05F9E300D1124532E13C08AE0389E05
S1134AD0300D1124332E20620CC08E3221F426FDB9
S1134AE06BC1206406C08C3611F4206802C088367D
S1134AF041F4F60193FD859193FF81916F0181113A
S1134B00C1CF982F9F7D9554933028F40C5F1F4F8D
S1134B10FFE3F9830DC0833631F0833771F08335B9
S1134B2009F05BC022C0F801808189830E5F1F4FAA
S1134B3044244394512C540115C03801F2E06F0E03
S1134B40711CF801A080B18026FF03C0652D70E0C0
S1134B5002C06FEF7FEFC5012C870E942D272C0127
S1134B6083012C852F77222E17C03801F2E06F0EB7
S1134B70711CF801A080B18026FF03C0652D70E090
S1134B8002C06FEF7FEFC5012C870E9422272C0102
S1134B902C852068222E830123FC1BC0832D90E0EA
S1134BA048165906B0F4B70180E290E00E94382715
S1134BB03A94F4CFF50127FC859127FE81915F019A
S1134BC0B70190E00E94382731103A94F1E04F1A6F
S1134BD051084114510471F7E5C0843611F0893647
S1134BE039F5F80127FF07C06081718182819381C3
S1134BF00C5F1F4F08C060817181882777FD809505
S1134C00982F0E5F1F4F2F76B22E97FF09C09095F5
S1134C108095709561957F4F8F4F9F4F2068B22E7E
S1134C202AE030E0A4010E946A27A82EA81844C0F4
S1134C30853729F42F7EB22E2AE030E025C0F22FEA
S1134C40F97FBF2E8F36C1F018F4883579F0B4C0DF
S1134C50803719F0883721F0AFC02F2F2061B22E92
S1134C60B4FE0DC08B2D8460B82E09C024FF0AC089
S1134C709F2F9660B92E06C028E030E005C020E1E1
S1134C8030E002C020E132E0F801B7FE07C06081E5
S1134C907181828193810C5F1F4F06C06081718195
S1134CA080E090E00E5F1F4FA4010E946A27A82EA7
S1134CB0A818FB2DFF77BF2EB6FE0BC02B2D2E7F21
S1134CC0A51450F4B4FE0AC0B2FC08C02B2D2E7EED
S1134CD005C07A2C2B2D03C07A2C01C0752C24FF1F
S1134CE00DC0FE01EA0DF11D8081803311F4297E8F
S1134CF009C022FF06C07394739404C0822F86787F
S1134D0009F0739423FD13C020FF06C05A2C7314BA
S1134D1018F4530C5718732C731468F4B70180E219
S1134D2090E02C870E94382773942C85F5CF731458
S1134D3010F4371801C0312C24FF12C0B70180E3EE
S1134D4090E02C870E9438272C8522FF17C021FF72
S1134D5003C088E590E002C088E790E0B7010CC08A
S1134D60822F867859F021FD02C080E201C08BE2D7
S1134D7027FD8DE2B70190E00E943827A51438F48E
S1134D80B70180E390E00E9438275A94F7CFAA94A1
S1134D90F401EA0DF11D8081B70190E00E943827EB
S1134DA0A110F5CF332009F451CEB70180E290E091
S1134DB00E9438273A94F6CFF7018681978102C082
S1134DC08FEF9FEF2C960FB6F894DEBF0FBECDBFCA
S1134DD0DF91CF911F910F91FF90EF90DF90CF90D3
S1134DE0BF90AF909F908F907F906F905F904F9007
S1134DF03F902F900895DC01CB01FC01E199FECF97
S1134E0006C0FFBBEEBBE09A31960DB20D92415045
S1134E105040B8F70895DC01CB0103C02D910E94E6
S1134E20162741505040D0F70895262FE199FECF20
S1134E309FBB8EBB2DBB0FB6F894E29AE19A0FBECE
S1134E4001960895FC010590615070400110D8F757
S1134E50809590958E0F9F1F0895FC0161507040BE
S1134E6001900110D8F7809590958E0F9F1F08959B
S1134E700F931F93CF93DF93182F092FEB018B818F
S1134E8081FD03C08FEF9FEF20C082FF10C04E81D1
S1134E905F812C813D81421753077CF4E881F981BD
S1134EA09F012F5F3F4F39832883108306C0E88515
S1134EB0F985812F0995892B29F72E813F812F5F51
S1134EC03F4F3F832E83812F902FDF91CF911F91EE
S1134ED00F910895FA01AA27283051F1203181F168
S1134EE0E8946F936E7F6E5F7F4F8F4F9F4FAF4FEE
S1134EF0B1E03ED0B4E03CD0670F781F891F9A1F01
S1134F00A11D680F791F8A1F911DA11D6A0F711DB4
S1134F10811D911DA11D20D009F468943F912AE0C0
S1134F20269F11243019305D3193DEF6CF010895A8
S1134F30462F4770405D4193B3E00FD0C9F7F6CFD9
S1134F40462F4F70405D4A3318F0495D31FD4052A1
S1134F50419302D0A9F7EACFB4E0A6959795879537
S1134F6077956795BA95C9F7009761057105089516
S1134F709B01AC010A2E06945795479537952795C2
S1134F80BA95C9F7620F731F841F951FA01D08955A
S1134F900E94FA27A59F900DB49F900DA49F800DA9
S1134FA0911D11240895B7FF0C94C8270E94C827A7
S1134FB0821B930B0895052E97FB1EF400940E9408
S1134FC0F22757FD07D00E94092807FC03D04EF4AE
S1134FD00C94F22750954095309521953F4F4F4FB3
S1134FE05F4F089590958095709561957F4F8F4F91
S1134FF09F4F0895A29FB001B39FC001A39F700D5E
S1135000811D1124911DB29F700D811D1124911DCC
S11350100895A1E21A2EAA1BBB1BFD010DC0AA1FF5
S1135020BB1FEE1FFF1FA217B307E407F50720F00D
S1135030A21BB30BE40BF50B661F771F881F991F88
S11350401A9469F760957095809590959B01AC01D1
S10D5050BD01CF010895F894FFCFCD
S113505A0000A00C2000010000000000690200000A
S113506A00000000000200000000760300000000B7
S113507A00008F060000000000007907000000000D
S113508ABE000800D409E40302000800EC09DC09A4
S113509A05000800210AF90906000800590A290A24
S11350AA1A000200950A610A0700050003000600B7
S11350BA0400D40ABC0A2D0057030B04270000007D
S11350CAA7160000000068656C6C6F5F636F6F72EF
S11350DA64696E61746F72006F6B006C65537461FE
S11350EA7475735F6D6F74657300636F6E66696759
S11350FA7572610062726F6164636173745F737461
S113510A61747573007374617475735F6D6F74651C
S113511A2025642C25642C25642C25642C25642CD8
S113512A25642C25642C25642C25640A0066696D83
S113513A002F00300042726F61646361737400F07F
S113514A000000CE0000000A010000C80ABC0A1AC6
S113515A10000052696D65000302AE0B7C0BE20B72
S113516AD60B1B101A100000000043534D41001ABD
S113517A02890EF50E080E0D0E120E170E43582D47
S113518A4D4143002D021211A511FD1321142911B9
S113519AF210BC106E756C6C736563004402B11432
S11351AAB314BE14C114C61454191116D4174F18C3
S11351BA40160B17AA15AF15D616EC168A180E192F
S11351CAE414E714001FFF1BFD17FB13F90FF60B7A
S11351DAF107E70300004C1CD11B961D921D0D1EFE
S11351EA9A1DD71E1620321E0080C0E0F0F8FCFE7D
S10551FAFF00B0
S9030000FC
