S0130000636F6F7264656E61646F722E7372656381
S11300000C94B4000C94D3000C94D3000C94D3003F
S11300100C94D3000C94D3000C94D3000C94AC1A1D
S11300200C94D3000C94D3000C94D3000C94D30000
S11300300C94D3000C94D3000C94D3000C94CF05EF
S11300400C94D3000C94D3000C94BB030C94D300F5
S11300500C94D3000C94D3000C94D3000C94D300D0
S11300600C94D3000C94D3000C94D41A0C94D300A5
S11300700C94D3000C94D3000C94E9030C94D30097
S11300800C94D3000C94D3000C94D3008F01E001A2
S1130090E70126025F02DA020E037A198319D419E2
S11300A0D419D419D4198819A919BC19D419BF1988
S11300B0C219C519CB19436F6E74696B692D322E41
S11300C0362D323435302D6765616138373630204E
S11300D0737461727465642E204E6F646520696464
S11300E02025750A0025640A0025642E0052696DD6
S11300F06520737461727465642077697468206123
S1130100646472657373200025732025732C206347
S113011068616E6E656C20636865636B20726174E0
S11301206520256420487A2C20726164696F2063FD
S113013068616E6E656C2025640A004D414320257C
S11301403032783A253032783A253032783A2530D0
S113015032783A253032783A253032783A253032BE
S1130160783A253032780A0011241FBECFEFD0E14F
S1130170DEBFCDBF12E0A0E0B1E0EEE7F2E500E0C3
S11301800BBF02C007900D92A23EB107D9F71EE043
S1130190A2EEB2E001C01D92A03DB107E1F70E94BA
S11301A079040C943D290C94000082E00C944707D8
S11301B0CF93DF93EB010E948E0D9F938F938881E1
S11301C01F928F9386E791E09F938F930E94A925B6
S11301D0888190E0E6E0F3E00F900F900F900F908D
S11301E00F900F902191319128173907B1F025E034
S11301F0E630F207B9F7E0910605F0910705CF0163
S113020001969093070580930605EE0FFF1FEA5FA2
S1130210FC4F888190E091838083DF91CF91089592
S1130220CF93DF93D82FC92F9F938F932AE831E080
S11302303F932F930E94A925ED2FFC2FDF010D90F2
S11302400020E9F7BD016E1B7F0B8D2F9C2F0E94B0
S1130250FD0D8EEE92E00E94D70B81E090E090932A
S1130260ED028093EC020F900F900F900F90DF91AE
S1130270CF9108950F931F93CF93DF9300D0CDB701
S1130280DEB79A8389838B011F936F9327EA31E04A
S11302903F932F930E94A925D8010D900020E9F7E0
S11302A0BD01601B710BC8010E94FD0D61E77EE07A
S11302B0CE0101960E94FF0C0F900F900F900F90AB
S11302C0892B69F4BE016F5F7F4F89EF92E00E9432
S11302D0EC0C81E090E09093ED028093EC020F909F
S11302E00F90DF91CF911F910F910895AF92BF921C
S11302F0CF92DF92EF92FF920F931F93CF93DF93EE
S113030000D0CDB7DEB7E0910A05F0910B05E730D8
S1130310F10508F087C1EA5BFF4F0C94902364E673
S11303207DE082EC91E00E947925892BF9F064E666
S11303307DE087ED91E00E947925892B49F481E0E5
S113034090E090930B0580930A050E94760112C0F9
S113035064E67DE086EE91E00E947925892B51F4D4
S113036084E090E090930B0580930A0584ED91E07E
S11303700E94E52564E67DE080EF91E00E94792506
S1130380892B51F485E090E090930B0580930A0546
S113039080EF91E00E94100164E67DE086EF91E039
S11303A00E947925892B09F03DC186E090E0909365
S11303B00B0580930A0586EF91E00E94100132C17B
S11303C08BEF91E00E94100182E090E03AC08CE053
S11303D092E09F938F930E94A9250F900F9009E1BB
S11303E012E0E091EA02F091EB028091060590910F
S11303F00705E817F907BCF4CF0101969093EB02C7
S11304008093EA02EE0FFF1FEA5FFC4F81818F9316
S113041080818F931F930F930E94A9250F900F90B3
S11304200F900F90DECF8AE090E00E94DF251092BB
S1130430EB021092EA028BEF91E00E94100183E03C
S113044090E090930B0580930A05ECC08CE092E059
S11304509F938F930E94A9250F900F9009E112E0BA
S1130460E091EA02F091EB02809106059091070574
S1130470E817F907BCF4CF0101969093EB0280933F
S1130480EA02EE0FFF1FEA5FFC4F81818F938081A8
S11304908F931F930F930E94A9250F900F900F9095
S11304A00F90DECF8AE090E00E94DF251092EB02ED
S11304B01092EA028DE192E00E94E525AFC080E24D
S11304C090E00E9496238C0184E090E00E949623A1
S11304D06C018AE090E00E9496235C0184E69DE032
S11304E00E9437259A838983E12CF12C61E272E022
S11304F0CE0101960E948925BC01009759F1E114AF
S1130500F10449F4DB010D900020E9F7AD01461B2D
S1130510570BC80119C0B1E0EB16F10449F4FB0113
S113052001900020E9F7AF01461B570BC6010CC030
S1130530F2E0EF16F10451F4DB010D900020E9F72D
S1130540AD01461B570BC5010E945E25BFEFEB1A98
S1130550FB0ACCCF61E272E0C8010E946E25B501AE
S1130560C8010E946E25B60183E292E00E947925BB
S1130570892B41F486EE91E00E941001C8010E948B
S113058010010EC0C6010E941925F82E66EE71E016
S113059090E00E943A01B8018F2D90E00E943A0148
S11305A0C8010E942E24C6010E942E24C5010E9467
S11305B02E2434C085E292E09F938F930E94A92554
S11305C00F900F9009E112E0E091EA02F091EB0242
S11305D08091060590910705E817F907BCF4CF014F
S11305E001969093EB028093EA02EE0FFF1FEA5FFD
S11305F0FC4F81818F9380818F931F930F930E946F
S1130600A9250F900F900F900F90DECF8AE090E015
S11306100E94DF251092EB021092EA0210920B0561
S113062010920A0580E091E0E4E6FDE0DF019C0120
S11306301D9221503040E1F71092090510920805EF
S113064080E092E0E6E0F3E0DF019C011D9221509E
S11306503040E1F710920705109206050F900F90B5
S1130660DF91CF911F910F91FF90EF90DF90CF908A
S1130670BF90AF900895CF93DF93EC01633821F4DA
S11306808EEE92E00E94D50B88819981833E91057C
S113069041F1883E910509F445C0892BE9F581E0D3
S11306A090E00E94AC056EE973E080E00E945A0479
S11306B040E352E061E870E08EEE92E00E94BB0BF2
S11306C044E352E062E970E089EF92E00E94D20CC8
S11306D062E070E082EE92E00E94FA0883EE90E01D
S11306E018C082EE92E00E940409892BC9F080911F
S11306F0EC029091ED02019759F71092ED021092DD
S1130700EC0260E071E082EE92E00E94FA0888EE6A
S113071090E09983888304C01982188283E00BC017
S113072081E009C082EE92E00E940409892BC1F3A2
S11307300E947601CDCFDF91CF91089520910805D5
S113074030910905A9014F5F5F4F5093090540930C
S11307500805F901EC59F24F8083882311F08A309F
S113076039F4309309052093080510820E9476011C
S113077081E090E008951F920F920FB60F9211241A
S11307800BB60F922F933F934F935F936F937F9387
S11307908F939F93AF93BF93EF93FF938CB1E091AB
S11307A0660EF091670E309709F00995FF91EF916D
S11307B0BF91AF919F918F917F916F915F914F9175
S11307C03F912F910F900BBE0F900FBE0F901F9073
S11307D018951F920F920FB60F9211240BB60F9219
S11307E02F933F934F935F936F937F938F939F9335
S11307F0AF93BF93EF93FF9380919C00E091640EBD
S1130800F091650E309709F00995FF91EF91BF9132
S1130810AF919F918F917F916F915F914F913F9194
S11308202F910F900BBE0F900FBE0F901F90189535
S113083081110CC01092900069B988E98AB940937B
S113084095001092670E1092660E0895813069F437
S1130850109298006093990088E980939A004093DD
S11308609D001092650E1092640E0895811104C0CB
S11308705D9BFECF6CB90895813031F480919B006B
S113088085FFFCCF60939C000895CF93C82F8A30D6
S113089031F46DE080910C050E94360402C08D3065
S11308A029F06C2F80910C050E94360480E090E0C2
S11308B0CF910895811105C07093670E6093660E01
S11308C00895813021F47093650E6093640E089549
S11308D080930C0582E191E09093CD0E8093CC0E31
S11308E0089546E063E080E00E94180480E00C94E0
S11308F068040E94320784E00E9437070E94710452
S11309000E94270681E00E9437070E947B060E940E
S113091081052091680E80910D0590910E05820F3E
S1130920911D0E942E070E94D00A0E94F90960E0DE
S113093070E088E291E00E94A30A0E94C20782E06C
S11309400E9437070E94BE0480910E058F93809108
S11309500D058F9386EB90E09F938F930E94BB25A8
S113096087E00E943F0788E392E00E944F070F90C0
S11309700F900F900F900E940B0AFDCFEF92FF9201
S11309800F931F93CF93DF93CDB7DEB728970FB69E
S1130990F894DEBF0FBECDBF80910D0590910E057A
S11309A0009739F480916F0E898380916E0E8A834B
S11309B002C089839A838E010F5F1F4FC8010E9472
S11309C00B0D8DEE90E09F938F930E94BB25898140
S11309D01F928F9389EE90E09F938F930E94BB2583
S11309E08A811F928F9385EE90E09F938F930E944C
S11309F0BB250E942F1AE090710EF12CFE2CEE24E0
S1130A008091720EE80EF11C88E0F80111928A952B
S1130A10E9F761E77EE0C8010E94F80C88851F921F
S1130A208F938F811F928F938E811F928F938D81CD
S1130A301F928F938C811F928F938B811F928F9320
S1130A408A811F928F9389811F928F938BE391E008
S1130A509F938F930E94BB25A801B7018DEC9BEA5D
S1130A600E944418E0917702F09178020995E09190
S1130A706202F09163020995E0914B02F0914C02FD
S1130A8009950091830210918402F80109950FB62B
S1130A90F894DEBF0FBECDBF892B41F0F801099554
S1130AA0BC0180E890E00E947C2302C060E870E012
S1130AB01F928AE18F937F936F93809176028F9335
S1130AC0809175028F93809161028F93809160026F
S1130AD08F9388E091E09F938F930E94BB250FB67C
S1130AE0F894DEBF0FBECDBF28960FB6F894DEBFD4
S1130AF00FBECDBFDF91CF911F910F91FF90EF906B
S1130B000895CF93DF9300D000D01F92CDB7DEB706
S1130B108FB78D83F89444E050E0BE016F5F7F4F40
S1130B2080E090E00E94270789819A818D3A9E4D4A
S1130B3019F48B819C8102C080E090E090930E05B3
S1130B4080930D058D818FBF0F900F900F900F90A4
S1130B500F90DF91CF910895CF93DF9300D000D011
S1130B601F92CDB7DEB72DEA3EED3A8329839C83ED
S1130B708B838FB78D83F89444E050E0BE016F5FA0
S1130B807F4F80E090E00E9420078D818FBF0F90FF
S1130B900F900F900F900F90DF91CF9108951F92B7
S1130BA00F920FB60F9211240BB60F922F933F930F
S1130BB04F935F936F937F938F939F93AF93BF9361
S1130BC0EF93FF93809115059091160501969093EC
S1130BD016058093150580911305909114050196CF
S1130BE0909314058093130580389105B9F41092FD
S1130BF014051092130580910F0590911005A09192
S1130C001105B09112050196A11DB11D80930F0528
S1130C1090931005A0931105B09312050E940F093B
S1130C20892B11F00E944408FF91EF91BF91AF917D
S1130C309F918F917F916F915F914F913F912F91F0
S1130C400F900BBE0F900FBE0F901F901895F89445
S1130C5087B78C7F87BF80B7886080BF8BE083BFF6
S1130C6012BE88E081BF16BE80B78770E9F787B7E8
S1130C70826087BF10921605109215057894089526
S1130C808091150590911605209115053091160552
S1130C9082179307A9F70895009751F022E330E0F3
S1130CA000002150310921153105D1F70197F4CF06
S1130CB0089528E030E080E090E04AE050E060E110
S1130CC070E0A5E6B0E0D49ADC98FA013197F1F728
S1130CD0D498DC9AFB013197F1F7CC998068FD0137
S1130CE03197F1F7215031092115310519F0969505
S1130CF08795E9CF0895EF92FF920F931F93CF93B7
S1130D00DF931F92CDB7DEB7D498DC988FB7898371
S1130D10F894D49ADC9889E993E00197F1F7D49890
S1130D20DC9A80E890E00197F1F729B383EF92E031
S1130D300197F1F724FD71C0B8E0A3E32EE630E09B
S1130D4042E150E06AE070E0E5E7F0E0D49ADC9834
S1130D50A0FF07C0CB010197F1F7D498DC9ACF012B
S1130D6006C0C9010197F1F7D498DC9ACA0101972A
S1130D70F1F7B15011F0A695E9CF0E9459068C0104
S1130D8080E7E82E8EE0F82E0E945906D7018E9354
S1130D907D01BAE6EB16BEE0FB06B1F70E945906E8
S1130DA029812FBF01301105D1F528E030E0A801D9
S1130DB05695479500FF04C08A01ECE80E2701C050
S1130DC08A01215031092115310589F7E0E7FEE058
S1130DD02291022728E030E0A8015695479500FFAC
S1130DE004C08A016CE8062701C08A012150310938
S1130DF02115310589F7AEE0EA36FA0749F70817F5
S1130E00190769F41092680E8AE18093690E8CE4E4
S1130E1080936A0E81E090E00BC089818FBF88E0E7
S1130E20E8E6FEE0DF011D928A95E9F780E090E0B4
S1130E300F90DF91CF911F910F91FF90EF90089544
S1130E409C01CB01E199FECFB9010C941D289C01B2
S1130E50CB01E199FECFB9010C940D280C940E2519
S1130E600C940A250E94A3151092170508959091D9
S1130E701705982B90931705892F0C94AA15809524
S1130E80909117058923809317050C94AA159091C6
S1130E901705982790931705892F0C94AA15CF93BB
S1130EA0DF93EC0189919991009729F060E070E05B
S1130EB00E94A30AF7CFDF91CF910895EF92FF929A
S1130EC00F931F93CF93DF938C017A01FC018081F0
S1130ED09181009741F08A34910501F1F801118262
S1130EE0108283E048C089E195E00E94190BEC016F
S1130EF0209751F06C817D81CE0102960E94FA0800
S1130F000990D881C02DF4CF81E0809318058AE43C
S1130F1090E0F8019183808381E02DC06838E1F787
S1130F2089E195E00E94190BEC01209781F3CE0131
S1130F300296E816F906D9F4BE0189E195E00E940B
S1130F402D0BE0905305F09054058A859B85909372
S1130F50540580935305EC85FD85309719F08E85F3
S1130F609F850995F0925405E0925305D0CF0990DE
S1130F70D881C02DDACFDF91CF911F910F91FF90CF
S1130F80EF9008951092180589E195E00E94150BE1
S1130F9060E070E080E291E00C94A30A0F931F9349
S1130FA0CF93DF93EC0100915305109154051B87F7
S1130FB00A875D874C873F872E8780911805882391
S1130FC079F080E291E09093540580935305CE012B
S1130FD002960E94FA08109354050093530502C028
S1130FE07D836C83BE0189E195E0DF91CF911F91F0
S1130FF00F910C94480BCF93DF93EC01809118056B
S1131000882329F0CE0102960E941A0904C01F8287
S11310101E8219861886BE0189E195E0DF91CF9181
S11310200C942D0B80911D0590911E05892B29F49C
S113103010921C0510921B0508950E944006E09131
S11310401D05F0911E052281338140815181240FB9
S1131050351F281B390B0480F581E02D309769F08A
S11310604281538160817181460F571F481B590B80
S11310704217530780F79A01EECF280F391F309398
S11310801C0520931B05089588E291E00C94C40A82
S1131090EF92FF920F931F93CF93DF938C01FC0188
S11310A080819181009799F089359105D9F0F801F3
S11310B01182108283E068C0868197818417950726
S11310C009F049C00480F581E02D3097A9F710920A
S11310D01E0510921D0589E590E0F8019183808337
S11310E081E052C0673891F16238A9F7C0911D05BB
S11310F0D0911E05E12CF12C209769F3CE010E94BA
S1131100FD0A892BF1F0AE0168E88E819F810E946F
S11311106E0A892BA1F41F821E828C819D81E114A9
S1131120F10421F0F7019583848304C090931E0594
S113113080931D051D821C820E941208D7CF0E9435
S113114044087E010C80DD81C02DD6CFE0911D05C1
S1131150F0911E05BACFF0931E05E0931D05A481FE
S1131160B581109709F4B7CF16968D919C91179776
S11311708417950711F0FD01F2CF14968D919C917F
S1131180159795838483EBCFDF91CF911F910F91B6
S1131190FF90EF900895CF93DF93EC010E944408F1
S11311A08E819F8130911D0520911E05892B91F020
S11311B0E32FF22F309771F0EC17FD0739F480918B
S11311C05305909154059783868310C00480F5815C
S11311D0E02DF0CF80915305909154059F838E8329
S11311E03C832D83D0931E05C0931D05DF91CF91C1
S11311F00C941208CF93DF93EC010E94F10ACE0104
S1131200DF91CF910C94CB0821E030E0FC01868182
S11312109781892B11F020E030E0C901089581E025
S113122090E020911D0530911E05232B11F480E0E0
S113123090E00895CF93DF93EC01E0911D05F091C8
S11312401E058E179F0769F48C819D8190931E055E
S113125080931D050DC0848195818C179D0721F015
S1131260FC013097C1F706C08C819D8195838483EE
S11312700E9412081D821C821F821E82DF91CF9160
S113128008951F93CF93DF93EC01162FEA81FB811E
S11312903097D1F0909354058093530582E08E8368
S11312A0CE0104960995992787FD90950297029798
S11312B010F0133839F4BE01CE01DF91CF911F91A4
S11312C00C946E0981E08E83DF91CF911F91089574
S11312D0FC01268120FD0C9441090895CF92DF92F0
S11312E0EF92FF920F931F93CF93DF93EC016B0167
S11312F0E0905305F0905405009155051091560562
S1131300F801EC17FD0739F0309709F44AC0019051
S1131310F081E02DF6CF209709F443C08E81882315
S113132009F11E820115110561F0C017D10729F0DA
S1131330AE0167E8C8010E946809F80100811181C3
S1131340F1CFEA81FB81309769F0CC15DD0551F0CE
S1131350D0935405C093530540E050E063E8CE01B8
S113136004960995E0915505F0915605CE17DF07CF
S113137069F48881998190935605809355050DC031
S1131380808191818C179D0721F0FC013097C1F772
S113139004C08881998191838083F0925405E092FE
S11313A05305DF91CF911F910F91FF90EF90DF9044
S11313B0CF9008951F93CF93DF9310922705C09188
S11313C05505D091560511E0209779F08F81882337
S11313D041F01E831F8240E050E062E8CE010E948B
S11313E041090990D881C02DEFCFDF91CF911F9192
S11313F008958AE880935205109250051092510581
S11314001092700E109256051092550510925405C4
S11314101092530508958091270581110E94DA09DD
S113142070915105772309F451C0E09150052E2F96
S113143030E085E0E89FF0011124E85DFA4F608117
S113144060932605418152815093250540932405DC
S11314508381948190932305809322052F5F3F4FCE
S113146027703327209350057150709351050097CE
S113147031F58091550590915605909321058093FF
S113148020058091200590912105892BF9F0809108
S1131490270581110E94DA09409124055091250500
S11314A06091260580912005909121050E9468098C
S11314B0E0912005F091210580819181DECF613892
S11314C019F421E0FC0126830E9468098091270514
S11314D02091510590E0820F911D089520915105AE
S11314E02830E1F0E0915005E20FE770E0931F052A
S11314F035E0E39FF0011124E85DFA4F60835283E5
S113150041839483838381E0820F8093510590917A
S1131510700E981730F48093700E03C081E090E051
S1131520089580E090E00895CF93DF93C091530530
S1131530D09154050E946809D0935405C093530573
S1131540DF91CF910895AB01309155052091560557
S1131550E32FF22FE817F907B1F0309721F001904B
S1131560F081E02DF7CF009771F0FC0130832183E7
S1131570909356058093550521E0268315821482A5
S113158061E80C94940A0895009749F0FC012681BF
S11315902150223020F421E0278320932705089549
S11315A00C94011B80915705909158050097C1F048
S11315B01092580510925705DC0114966D917C9198
S11315C015971296ED91FC9113970995E0915705A3
S11315D0F0915805309721F0808191810C941D1B66
S11315E00895CF93DF93EC017B836A830E944006C6
S11315F099838883DF91CF910895CF93DF93EC0192
S11316000E94400628813981821B930B9C012F5F25
S11316103F4F81E090E04A815B814217530710F00D
S113162080E090E0DF91CF910895FC011182108257
S11316300895FC01808191810895DC01ED91FC9174
S1131640309731F080819181009729F0FC01FACF25
S113165080E090E00895CF010895DC01ED91FC91C4
S11316603097A9F0A0E0B0E020813181E617F707B8
S113167041F4109709F4DC012D933C9311821082FC
S113168008952115310519F0DF01F901EDCF089511
S11316900F931F93CF93DF938C01EB010E942D0BCB
S11316A019821882C8010E941D0B009711F4F801D9
S11316B001C0FC01D183C083DF91CF911F910F91B1
S11316C008950F931F93CF93DF93EC018B010E9436
S11316D02D0B88819981F801918380831983088374
S11316E0DF91CF911F910F910895DC01ED91FC9151
S11316F080E090E0309729F001960190F081E02D90
S1131700F9CF0895009721F0FC018081918108951B
S113171080E090E00895DC011996ED91FC911A9710
S11317200280F381E02D309709F0099408950F9316
S11317301F93CF93DF9300D0CDB7DEB78C0163E75F
S11317407EE0CE0101960E94F80CD8011996ED9125
S1131750FC911A970190F081E02D309729F0BE0199
S11317606F5F7F4FC80109950F900F90DF91CF9164
S11317701F910F910895EF92FF920F931F93CF93B0
S1131780DF93EC018B017A014CE352E00E943A1C96
S1131790FA86E98660E472E0C801DF91CF911F9177
S11317A00F91FF90EF900C940D0C0C94521CCF935E
S11317B0DF93EC0161E77EE083E79EE00E94F80C92
S11317C0CE01DF91CF910C94541C89E595E00C94E3
S11317D0150BFC0173836283BC0189E595E00C94CD
S11317E0480BBC0189E595E00C942D0BCF93DF9356
S11317F0EC0189E595E00E94190B009749F0FC0182
S1131800228133812C173D0729F00E94820BF5CFEA
S113181080E090E0DF91CF9108950F931F93CF93D1
S1131820DF938B010E94F60BEC01009731F01D83CE
S11318300C83C8010E94CA1D8E83DF91CF911F9132
S11318400F910895CF92DF92EF92FF920F931F931F
S1131850CF93DF937C018B016A018BE595E00E94B5
S1131860190BEC01009751F0EC81FD81309711F0D8
S1131870C8010995CE010E94820BF3CFA601B801DD
S1131880C701DF91CF911F910F91FF90EF90DF90EF
S1131890CF900C94621C0F931F93CF93DF9300D0CF
S11318A0CDB7DEB70E94A31D8C018BE595E00E94A5
S11318B0190B009779F0DC011296ED91FC911397C6
S11318C0309729F089839A8309959A8189810E94A6
S11318D0820BEFCF0115110549F0C8010F900F904D
S11318E0DF91CF911F910F910C94561C0F900F9084
S11318F0DF91CF911F910F9108950E94540E0E9481
S1131900EA0D0E946E1C0E94A11D2FEF31E040E001
S11319105EE160E072E082E090E00C947B1DCF9386
S1131920DF93EC010E94B21D009761F00E94100D3C
S1131930E0919102F0919202BE0182E29CE009954D
S113194081E090E0DF91CF910895DC011B96ED9149
S1131950FC911C970280F381E02D309709F00994E3
S113196008950F931F93CF93DF93EC018B0161E7ED
S11319707EE085E79EE00E94FF0C892B71F0EB85E9
S1131980FC850190F081E02D309739F0B801CE014B
S1131990DF91CF911F910F910994DF91CF911F9106
S11319A00F910895EF92FF920F931F93CF93DF93BC
S11319B0EC018B017A014FE452E00E94BB0BFC86E0
S11319C0EB8663E572E0C801DF91CF911F910F911F
S11319D0FF90EF900C940D0CCF93DF93EC0185E70F
S11319E09EE00E94F80CCE01DF91CF910C94D70BAE
S11319F0FB0120813181FC0131832083089542E081
S1131A0050E00E94512521E030E0892B11F020E0C4
S1131A1030E0C9010895BC0181E79EE00C94F80C04
S1131A20209110063091110621153105B9F08091ED
S1131A30120690911306C096EFE8F5E0AF014F55FA
S1131A4055404817590734F4DF01A20FB31F4C91D6
S1131A504193F4CF10921106109210060895CF927C
S1131A60DF92EF92FF920F931F93CF93DF937C014A
S1131A70C0901206D090130660910F0670E0E60144
S1131A80E096C61BD70BC138D105D8F400E310E0AB
S1131A90061B170B615A7A4FA8010E945E256091BC
S1131AA05D0570915E058091100690911106680F96
S1131AB0791FA601C701800F911F0E945E25CE01E8
S1131AC002C080E090E0DF91CF911F910F91FF90D1
S1131AD0EF90DF90CF900895409112065091130635
S1131AE04817590798F02091100630911106280FD5
S1131AF0391F3093110620931006481B590B50933D
S1131B0013064093120681E090E0089580E090E08F
S1131B1008959093130680931206089580911006F9
S1131B209091110681579A4F089580910F0690E085
S1131B30815A9A4F08958091120690911306089540
S1131B4080E390910F06891B11F48091100608958B
S1131B500E94A00D2091120630911306A901480F8E
S1131B60511DCA0108951F93CF93DF93EC01109187
S1131B700F06812F90E08C179D076CF00E94A80D32
S1131B808C0F9D1F8138910530F41C1B10930F0698
S1131B9081E090E002C080E090E0DF91CF911F915E
S1131BA00895CF93DF93EBE7FEE0119211928EE05C
S1131BB0EF3AF807D1F7C3E7DEE069E572E0CE015A
S1131BC00E94F80C22968EE0CB37D807B1F7DF914C
S1131BD0CF910895109211061092100610921306D8
S1131BE01092120680E380930F068FE895E090939D
S1131BF05E0580935D050C94D10DEF92FF920F93D7
S1131C001F93CF93DF9300D0CDB7DEB78C016983E8
S1131C107A830E94EA0D6981E62E7A81F72E81E8A3
S1131C20E816F10418F080E8E82EF12CA701B801B9
S1131C3080915D0590915E050E945E25F0921306E9
S1131C40E0921206C7010F900F90DF91CF911F9180
S1131C500F91FF90EF90089524E3EBE7FEE0DC01A1
S1131C6001900D922A95E1F788E0E3E7FEE0DB01BD
S1131C7001900D928A95E1F7089524E3FC01ABE706
S1131C80BEE001900D922A95E1F788E0FB01A3E7FD
S1131C90BEE001900D928A95E1F7089569E572E03E
S1131CA085E79EE00C94FF0C80E391E00E94B51B55
S1131CB088E391E00C94B51B0F931F93CF93DF93AC
S1131CC088E391E00E94D31B8C01009709F180E323
S1131CD091E00E94D31BEC01F8019183808300976B
S1131CE031F4B80188E391E00E94F81B11C00E940E
S1131CF02F0DFE01E058FF4F91838083BE016A548B
S1131D007F4FCE018E579F4F0E942C0EC80102C0F8
S1131D1080E090E0DF91CF911F910F910895FC0135
S1131D2080819181BC016A547F4F8E579F4F0C94E0
S1131D302C0ECF93DF93EC01BC0188E391E00E9469
S1131D401D1C892B69F06881798180E391E00E94F0
S1131D50F81BBE0188E391E0DF91CF910C94F81B4E
S1131D60DF91CF910895CF93DF93EC01BC0188E319
S1131D7091E00E941D1C892BA9F00990D881C02DE7
S1131D80FE01E058FF4F60817181CE010E94FD0D7C
S1131D90BE016A547F4FCE018E579F4FDF91CF9182
S1131DA00C943D0EDF91CF910895FC012081818137
S1131DB0E22FF82FE60FF11DE60FF11DEE57FF4F4E
S1131DC0808191810895E0919502F09196020994A1
S1131DD0E0917F02F09180020994E0918102F091F8
S1131DE082020994E0918302F0918402309709F011
S1131DF0099480E090E00895CF93DF93EC0100977D
S1131E0089F0888D998D0E94190B009759F0E09103
S1131E107B02F0917C02AC01BE0187EC90E1DF9182
S1131E20CF910994DF91CF910895EF92FF920F9390
S1131E301F93CF93DF9300D0CDB7DEB78C01FC01A5
S1131E40458980915C0190915D0150E0841795076C
S1131E5008F4AC015093B00E4093AF0EEE24E3941B
S1131E60F12C02C0EE0CFF1C4A95E2F7F1E0EF1AE8
S1131E70F108E0918302F09184020995009711F42E
S1131E8081E090E08E9DB0018F9D700D9E9D700D40
S1131E9011246115710549F069837A830E94300722
S1131EA069817A810E947C23BC0198014CEF5EE039
S1131EB0C80104960F900F90DF91CF911F910F915D
S1131EC0FF90EF900C94CE0788E491E00E94B51B3C
S1131ED080E491E00E94B51B80E591E00C94B51B71
S1131EE09F92AF92BF92CF92DF92EF92FF920F93A5
S1131EF01F93CF93DF935C018B01EA01DB011496FE
S1131F00ED91FC911597E080F180C280D3809C888C
S1131F106115710599F1888D998D0E942D0BF80139
S1131F20828193810E94990ED80114966D917C91BF
S1131F30159780E491E00E94F81BB80188E491E0D1
S1131F400E94F81B888D998D0E94190B892B41F0F2
S1131F501C8A8091D30C8D8BCE010E94150F0EC06C
S1131F60CE0104960E94FB07BE0187E29CE00E941A
S1131F702D0BBE0180E591E00E94F81B292D30E075
S1131F80A501B601C701DF91CF911F910F91FF9079
S1131F90EF90DF90CF90BF90AF909F900C948F11F3
S1131FA0CF92DF92EF92FF920F931F93CF93DF9321
S1131FB07C016B018091260C811109C081E0809322
S1131FC0260C0E9430079093250C8093240C80915A
S1131FD0240C9091250C892B31F481E090E09093AE
S1131FE0250C8093240C8091240C9091250C9C0149
S1131FF02F5F3F4F3093250C2093240C9093900E29
S113200080938F0E87E29CE00E94190BEC010097ED
S113201061F065E77EE0CE0102960E94FF0C892BF9
S113202019F5CE010E94820BF1CF80E591E00E9468
S1132030D31BEC01009709F49AC065E77EE0CE015A
S113204002960E94F80C1C8A8091D30C8D8BCE01D1
S11320504696998F888F1F8A1E8A0E94150BBE018F
S113206087E29CE00E94480B888D998D0E94750B35
S113207008970CF07CC088E491E00E94D31B8C018B
S1132080009709F464C080E491E00E94D31BD80156
S113209015969C938E931497892B09F453C00E9430
S11320A05C0EF801938382830480F581E02D892BF3
S11320B009F443C080918D0E90918E0E009719F40F
S11320C0809158018F5F8483F182E082D382C2823F
S11320D02091950E3091960E888D998DB8012130FE
S11320E0310519F40E94610B02C00E94480B888DCF
S11320F0998D0E94190B0817190719F4CE010E9433
S1132100150F8091CB0C9091CC0CA091CD0CB0917B
S1132110CE0C0196A11DB11D8093CB0C9093CC0CD9
S1132120A093CD0CB093CE0CDF91CF911F910F9162
S1132130FF90EF90DF90CF900895BF0180E491E08D
S11321400E94F81BB80188E491E00E94F81B888D76
S1132150998D0E94750B892B51F4BE0187E29CE096
S11321600E942D0BBE0180E591E00E94F81B21E046
S113217030E044E050E0B601C701DF91CF911F91F8
S11321800F91FF90EF90DF90CF900C948F11DF921E
S1132190EF92FF920F931F93CF93DF93EC018B0188
S11321A0D42E009709F4B3C0888D998D0E94190B21
S11321B07C01009709F4ABC06AE0D70112968D91B7
S11321C09C9113970E94D50E20918F0E3091900E02
S11321D08217930721F0C7010E94820BE9CFD70130
S11321E01496ED91FC911597309709F490C0013045
S11321F0110509F441C01CF50115110509F07BC056
S11322000091CF0C1091D00C2091D10C3091D20CB4
S11322100F5F1F4F2F4F3F4F0093CF0C1093D00CE5
S11322202093D10C3093D20C8091D30C8D8B8C895C
S11322308D0D8C8BAE01B70180E090E05FC0023061
S1132240110529F00330110509F461C054C08091CF
S1132250D30C8D8B8C898D0D8C8B9481891728F0F0
S1132260AE01B70182E090E049C0CE010E94150F93
S1132270F7018281938136C00091C70C1091C80C7C
S11322802091C90C3091CA0C0F5F1F4F2F4F3F4F45
S11322900093C70C1093C80C2093C90C3093CA0C3C
S11322A02D892D0D2D8B30E080915A0190915B0189
S11322B08217930730F48091D30C8D8B8C898F5FB8
S11322C08C8B9C898481981728F0AE01B70181E03A
S11322D090E014C0CE010E94150FD70112968D9183
S11322E09C911397DF91CF911F910F91FF90EF90E5
S11322F0DF900C948F0EAE01B701C801DF91CF912E
S11323001F910F91FF90EF90DF900C94700FDF916D
S1132310CF911F910F91FF90EF90DF900895FC01F2
S1132320CB01BA01309711F0A9010994089580E115
S113233090E008958091160D882361F08091120D2C
S1132340811108C081E08093120DE091A902F091FF
S1132350AA02099408958091160D882379F080913A
S1132360120D882359F08091EB0C811107C0109253
S1132370120DE091AB02F091AC02099408958091A2
S1132380130D811106C08091150D811102C00E94A8
S1132390AB118EEB9EE00C94311B1092160D892B21
S11323A029F0E091A902F091AA0204C0E091AB02E5
S11323B0F091AC0209942091160D222369F0009744
S11323C011F481E090E020E030E04EE052E1BC0105
S11323D085ED9CE00C94CE0708951092120D109296
S11323E0150D1092180D1092170D81E08093160DA3
S11323F088E09DE00E94150B8EE591E00E94B51BDC
S11324008FE090E00C94DB1181E08093160D8FE057
S113241090E00E94DB1181E090E008958091EB0C44
S11324208823D1F080918800909189002091E50C57
S11324303091E60C821B930B97FD0EC01092EB0CAF
S113244069E572E089EE9CE00E94F80C69E572E0AF
S113245087EE9CE00E94F80C8091170D9091180D66
S11324608B3221E0920701F18A3321E0920711F0C7
S1132470892B91F58091140D882329F08091140DF6
S113248081508093140D8091130D811106C08091A9
S1132490150D811102C00E949A1180E090E00E9403
S11324A0DB118BE291E012C0809168019091690187
S11324B0892B01F30E94BF118091150D811112C067
S11324C08FE090E00E94DB118AE391E09093180D75
S11324D08093170D81E008951092180D1092170D36
S11324E083E008958091150D8F5F8093150D809181
S11324F0150D833028F31092150D0E94BF11E0CF03
S11325002F923F924F925F926F927F928F929F92FF
S1132510AF92BF92CF92DF92EF92FF920F931F93ED
S1132520CF93DF93CDB7DEB7EE970FB6F894DEBF47
S11325300FBECDBF5C014B018091140D8111BAC156
S113254061E77EE083E79EE00E94F80C0E944E0E55
S11325503C01E091CD02F091CE0209958C0197FDEA
S113256060C12C0142E0440E511C53E34516510452
S11325700CF057C10E94950DA801BC01CE01019633
S11325800E945E25E1E0F0E0EC0FFD1FE00FF11F7B
S11325901082FE01E00FF11F80E182830E94100D82
S11325A00E945C0E7C01009709F43EC18091EB0C03
S11325B08130B1F469EE7CE085E79EE00E94FF0C77
S11325C0892B89F467EE7CE085E79EE00E94FF0C8E
S11325D031E020E0892B09F430E0032F122F05C0ED
S11325E000E010E002C001E010E08091950E9091AF
S11325F0960E029731F581E08093EB0C69E572E069
S113260089EE9CE00E94FF0C65E77EE0892B19F0BF
S113261089EE9CE00AC089EE9CE00E94FF0C892BA5
S113262031F465E77EE087EE9CE00E94F80C80912F
S1132630880090918900805E934E9093E60C80937D
S1132640E50C0E94AB1188E09DE00E94190B6C011F
S113265094E8292E93E0392EC114D10491F1B601E6
S11326606E5F7F4F85E79EE00E94FF0C892B21F16E
S11326704091880050918900F601848195812091D0
S1132680950E3091960E21303105B1F02091EB0C6E
S1132690211112C09A012A553109841B950BB101ED
S11326A00E947C23280F391F809188009091890013
S11326B0821B930B97FDF8CFC6010E94820B6C011D
S11326C0CBCFCC24C394D12C672811F4C12CD12CAA
S11326D081E08093130D409188005091890058AF98
S11326E04FAB0E949A11012B09F005C10E94301BC7
S11326F00091880010918900312C612C4091A10235
S11327005091A2025AAF49AF4091D1025091D202E6
S11327105CAF4BAF40919F025091A0025EAB4DABBA
S1132720809188009091890020916A0130916B0119
S11327304FA958AD240F351F821B930B712C97FFA3
S1132740DDC0809188009091890020916C013091C6
S11327506D01821B930B801B910B97FF13C040915B
S11327608800509189005CAB4BAB0E94EA0D0E943B
S11327708E0D60E870E0E9ADFAAD099518161906FA
S113278004F703C080E090E026C00E94890DEBAD01
S1132790FCAD099597FD13C00E948E0DFC012181AB
S11327A0808181110BC0233149F461E77EE085E724
S11327B09EE00E94FF0C892B29F401C0739480E0F1
S11327C090E004C03BA86CA881E090E0892B09F458
S11327D0B8CF81E090E00091880010918900892BA6
S11327E031F571108BC0C114D10491F0C7010E945E
S11327F0B30E0E94A80DBC018DAF7EAF0E94950D53
S11328006DAD7EADEDA9FEA909950E94AB1188CFEF
S1132810B201CE010196EDA9FEA909950E949A1173
S11328207FCF45E050E048C044E050E045C080918F
S1132830990E90919A0E892B09F0B2C08091AD0E39
S11328409091AE0E892B09F0ABC08091950E9091BA
S1132850960E029709F4A4C001E010E00E94AB11A7
S1132860C7010E94B30EC7010E94990EC114D1047E
S113287009F047C00115110509F043C08091EB0C24
S113288081113FC00E942F1B8AE09DE00E94311BF2
S11328908AE09DE00E94971B8AE09DE00E948D1BC8
S11328A01092130D772009F45AC08091140D8F5F94
S11328B08093140D41E050E021E030E0B401C50103
S11328C00E948F11EE960FB6F894DEBF0FBECDBFF7
S11328D0DF91CF911F910F91FF90EF90DF90CF90F8
S11328E0BF90AF909F908F907F906F905F904F902C
S11328F03F902F900895712C312C612C00E010E052
S1132900ADCF71100CC0E0909F02F090A0020E9425
S1132910A80D2C010E94950DB201F701099501152E
S1132920110509F4AFCF8091EB0C8111ABCF88E096
S11329309DE00E94190B7C010097D9F0B7016E5FEE
S11329407F4F85E79EE00E94FF0C892B21F0F70161
S11329503482658297CFC7010E94820BECCFCD28C9
S113296029F4012B19F442E050E0A6CF40E050E0F6
S1132970A3CF8EE591E00E94D31B7C01009709F45C
S113298081CF65E77EE0C70102960E94F80CF7014B
S113299034826582B70188E09DE00E94480B72CFC3
S11329A00E949A1181E08093150D01E010E058CF48
S11329B00F931F93CF93DF9300D0CDB7DEB78C0175
S11329C04115510591F0FA018281938169837A83DB
S11329D00E94B30E69817A81C8010F900F90DF9134
S11329E0CF911F910F910C9480120F900F90DF9153
S11329F0CF911F910F9108950F931F93CF93DF935E
S1132A00E091D102F091D202099597FD80C00E9415
S1132A108E0DEC018881882361F11092140D61E719
S1132A207EE085E79EE00E94FF0C892BC9F00E949E
S1132A30AB118AE09DE00E94311B8AE09DE00E9478
S1132A40971B8AE09DE00E948D1B1092150DE0916A
S1132A506602F0916702DF91CF911F910F91099463
S1132A6069E572E085E79EE00E94FF0C892BF9F688
S1132A704EC08981803109F04AC082E08093140DF0
S1132A8061E77EE085E79EE00E94FF0C892B71F1EF
S1132A9083E1898363E77EE085E79EE00E94F80C8A
S1132AA061E77EE083E79EE00E94F80C0E94100D2F
S1132AB0E091CD02F091CE02099597FD28C081E006
S1132AC08093140D8093150D0E949A11C0919F025A
S1132AD0D091A0020E94A80D8C010E94950DB8010E
S1132AE0FE01DF91CF911F910F91099469E572E086
S1132AF085E79EE00E94FF0C892B49F081E08093DA
S1132B00150DDF91CF911F910F910C949A11DF91C4
S1132B10CF911F910F910895FC01099421E030E0B9
S1132B203093A40E2093A30EE0916402F091650209
S1132B30099481E090E00895E0914D02F0914E02F5
S1132B40099480E008958AB387608ABB8BB3876059
S1132B508BBB08959BB3987F82FF02C030E001C015
S1132B6034E080FF02C020E001C022E0869581703D
S1132B7041E08427892B832B822B8BBB089581E032
S1132B8090E0089581E090E00895C0988FB9779B14
S1132B90FECFC09A0895C09880648FB9779BFECF0A
S1132BA08FB11FB8779BFECF8FB190E0982F882705
S1132BB01FB8779BFECF2FB1C09A822B0895C0987F
S1132BC08FB9779BFECF7FB9779BFECF6FB9779B89
S1132BD0FECF1FB8779BFECFC09A0895C098E62F0A
S1132BE0E068EFB9779BFECF76956795607C6FB907
S1132BF0779BFECF232B89F460E0262F30E0241747
S1132C00350748F4FC01E20FF31F20812FB9779BAD
S1132C10FECF6F5FF2CFC09A089520E030E0542FCA
S1132C20521BC9F3FC01E50FF11D319750815FB9C7
S1132C30779BFECF2F5F3F4FF2CFC0982EE32FB983
S1132C40779BFECF40E0242F30E02617370748F467
S1132C50FC01E20FF31F20812FB9779BFECF4F5F5A
S1132C60F2CFC09A0895C0981FB8779BFECF8FB15A
S1132C70C09A08951F93CF93DF93182FC0918800B3
S1132C80D09189000E943316812351F42091880049
S1132C9030918900205D32402C1B3D0B37FDF2CF73
S1132CA0DF91CF911F910895CF93DF93C091880056
S1132CB0D09189000E94331683FF0AC08091880056
S1132CC090918900805D92408C1B9D0B97FDF2CF03
S1132CD0DF91CF91089589B7806489BF83E090E044
S1132CE00E94C51581E080931E0D0895CF93C82FCF
S1132CF085E190E00E94CB15BC01607ECF716C2B06
S1132D0085E190E0CF910C94DF1580B382958170BA
S1132D1090E0089581B186FB882780F990E00895BA
S1132D20C0982FE72FB9779BFECF2FB140E0242F17
S1132D3030E02617370754F41FB8779BFECF5FB1F6
S1132D40FC01E20FF31F50834F5FF1CF81E090E06D
S1132D500E944C06C09A0895CF93DF931F92CDB77B
S1132D60DEB761E070E0CE0101960E94901688E023
S1132D7090E00E94C51588E090E00E94C5150F9070
S1132D80DF91CF91089510921E0D0E94541686E093
S1132D9090E00E94C51589B78F7B89BF0E9B0C9468
S1132DA0AC16089580911B0D813081F480911A0D29
S1132DB0882321F00E946B1610921A0D8091190D30
S1132DC0882321F00E94C3161092190D80911B0DC7
S1132DD0815080931B0D0895EF92FF920F931F93E0
S1132DE0CF93DF931F92CDB7DEB78C01F62EE72E7B
S1132DF080911B0D8F5F80931B0D89E090E00E94F2
S1132E00C51582E08F0D898361E070E0CE010196E3
S1132E100E941D166F2D7E2DC8010E941D160E9452
S1132E20D21680E090E00F90DF91CF911F910F9127
S1132E30FF90EF900895EF92FF920F931F93CF931B
S1132E40DF9300D01F92CDB7DEB78C017B010E9BC0
S1132E504DC080911B0D8F5F80931B0D61E070E06E
S1132E60CE0103960E9490166B818DEF860F8D37ED
S1132E70C8F570E062507109E616F70698F1C801CA
S1132E800E94901662E070E0CE0101960E949016B6
S1132E908A8187FF14C029812D522093B10E8F7728
S1132EA08093B80E332727FD30953093840E2093FA
S1132EB0830E90E09093820E8093810E02C082E094
S1132EC08B830E9B09C0B79903C00E94AC1604C043
S1132ED08EE691E00E94C40A0E94D2168B8190E093
S1132EE0029706C00E94AC160E94D21680E090E0C1
S1132EF00F900F900F90DF91CF911F910F91FF9042
S1132F00EF900895CF93DF93EC0188819981009726
S1132F1001F18836934021F01982188283E01EC0A3
S1132F206238D9F40E94EA0D80911F0D9091200D12
S1132F309093860E8093850E0E948E0D60E870E05B
S1132F400E941B170E94890DE0917D02F0917E0280
S1132F50099588E693E09983888381E0DF91CF9196
S1132F60089580911E0D81110FC080911B0D88233F
S1132F7021F081E080931A0D07C081E080931B0D3E
S1132F800E946B160E94D21681E090E00895CF93C0
S1132F9080911E0D8823B1F080911B0D882321F0B0
S1132FA081E08093190D0EC0C1E0C0931B0D0E94F7
S1132FB0331683FF03C0C093190D02C00E94C316C9
S1132FC00E94D21681E090E0CF9108951F93CF9391
S1132FD0DF9380911B0D811118C081E080931B0D3C
S1132FE080911E0D811105C00E94B117C1E0D0E08F
S1132FF002C0C0E0D0E080911E0D811108C00E9483
S1133000D216CD2B11F00E94C71781E00EC082E0CA
S11330100E943A1610B316FB112710F9CD2B11F0AC
S11330200E94C7170E94D216812F90E0DF91CF91A2
S11330301F910895CF93DF93EC0180911B0D8F5F57
S113304080931B0DD0931D0DC0931C0D0E9454162C
S11330502B9785E08C9FB0018D9F700D11246B59C7
S11330607E4B88E190E00E94DF1580911E0D88233D
S113307021F083E090E00E94C5150E94D21681E001
S113308090E0DF91CF9108950F931F93CF93DF9337
S113309000D000D0CDB7DEB79A8389837C836B835D
S11330A08A0180911B0D8F5F80931B0D20E030E01F
S11330B042E050E068E671E0CE0101960E94EE1510
S11330C020E030E042E050E06AE671E0CE01039691
S11330D00E94EE150115110549F021E030E048E0A9
S11330E050E060E671E0C8010E94EE150E94D2161D
S11330F00F900F900F900F90DF91CF911F910F9130
S1133100089580E488BF8EE691E00E94C40A80910D
S1133110B20E9091B30E9093200D80931F0D81E019
S113312090E0089590911B0D9F5F90931B0D0E945A
S113313076160C94D216CF93DF9380911B0D8F5F7C
S113314080931B0D85E190E00E94CB15EC010E9459
S1133150D216CE018F719927DF91CF910895FF92F6
S11331600F931F93CF93DF9300D0CDB7DEB78C01BD
S113317080911B0D8F5F80931B0D8091870E909122
S1133180880E892B49F00E949B18F82E8091870E97
S113319081500E94761601C0F12C83E090E00E94D9
S11331A0C51582E00E943A1685E090E00E94C5159C
S11331B024EF31E0849B37C02091B20E3091B30EDE
S11331C03A8329832091950E3091960E243031054F
S11331D059F4B8016150710920E030E042E050E058
S11331E0CE0101960E94EE150E94331683FD05C0A0
S11331F00E94D21682E090E025C00E94541680916D
S11332001E0D811102C00E94C3162091870E3091B9
S1133210880E232B19F08F2D0E9476160E94D21649
S113322080E090E00FC0215031092115310511F6DD
S11332302091870E3091880E232BD1F28F2D0E947E
S11332407616D6CF0F900F90DF91CF911F910F91EB
S1133250FF900895CF93DF93EB010E94EC16CE010B
S1133260DF91CF910C94AF180F931F93CF93DF93FB
S113327080911B0D811122C081E080931B0D8091F0
S11332801E0D811105C00E94B11701E010E002C0BB
S113329000E010E082E00E943A1683E190E00E9490
S11332A0CB15C82FDD27C7FDD095AD97012B11F0A5
S11332B00E94C7170E94D216CE0102C080E090E09F
S11332C0DF91CF911F910F9108950F931F93CF9387
S11332D0DF931F92CDB7DEB78B016115710509F439
S11332E060C08E30910508F05FC0FC01E35BFF4FC6
S11332F00C94902381E090E020911E0D211147C091
S113330080E090E044C080911C0D90911D0D3FC061
S11333100E949B1827EE3FEFF80131832083E6EBF0
S1133320F2E020E030E0408150E0329684179507C7
S113333054F0F901EE0FFF1FEB54FD4F80819927E4
S113334087FD909524C02F5F3F4F2830310559F7F2
S113335025C080911B0D8F5F80931B0D83E190E04E
S11333600E94CB1599830E94D2169981892F99279F
S113337087FD90958D970BC00E94341908C08BE08F
S113338090E005C08AE190E002C087EE9FEFF8016B
S11333909183808303C0FB011182108280E090E05E
S11333A005C082E090E002C081E090E00F90DF91E0
S11333B0CF911F910F91089590911B0D9F5F909352
S11333C01B0D60E0782F83E190E00E94DF150C94E0
S11333D0D21681309105B1F050F086309105D1F0CC
S11333E00797B9F5CB018D960E94DC192FC0613087
S11333F0710519F40E94B11729C0672B69F50E9461
S1133400C71724C0CB010B97409730F5CB010E941E
S11334101A181CC0CB0149964A97F0F4E7EBF2E086
S113342081E090E02081332727FD309532962617DE
S1133430370724F0019688309105A1F7FC01EE0FBF
S1133440FF1FED54FD4F81810E94921880E090E0AF
S1133450089581E090E0089582E090E00895CF938C
S1133460CFB7F8940E949D1A89B78F7B89BF8AB71A
S113347080638ABF80E488BFCFBFDD9A8AEF90E083
S11334800E944C06DE988FE790E00E944C06DE9A7C
S11334908DE790E00E944C0681E090E00E94C51503
S11334A080E40E943A1681E190E00E94CB15BC01B1
S11334B06F7E777F606281E190E00E94DF1560E0BB
S11334C075E082E190E00E94DF1587E190E00E94C0
S11334D0CB15BC01706287E190E00E94DF156FE7B5
S11334E070E08CE190E00E94DF1560E070E089E11B
S11334F090E00E94DF1560E070E08AE190E00E94B5
S1133500DF1540E050E060E070E08FEF9FEF0E9435
S113351044188AE190E00E941A1883ED9FEF0E94FC
S1133520DC190E94AC1660E070E08EE691E00E9427
S1133530A30A81E090E0CF91089580B5846080BDB6
S11335400E94021FD69AD59ABF988E988C98169886
S1133550DE9AC09AC09A08951F920F920FB60F92E6
S113356011240BB60F922F933F934F935F936F9356
S11335707F938F939F93AF93BF93EF93FF930E9497
S11335808118FF91EF91BF91AF919F918F917F919E
S11335906F915F914F913F912F910F900BBE0F90C0
S11335A00FBE0F901F9018951F920F920FB60F9297
S11335B011240BB60F922F933F934F935F936F9306
S11335C07F938F939F93AF93BF93EF93FF93EDE715
S11335D0F0E08081817C80830E94D20AFF91EF9188
S11335E0BF91AF919F918F917F916F915F914F9117
S11335F03F912F910F900BBE0F900FBE0F901F9015
S113360018959FB7F894EDE7F0E08081817C808382
S1133610ECE7F0E080818E63808310928B00EAE80F
S1133620F0E0108210928C001092890010928800B1
S11336308081856080839FBF08952FB7F89490930D
S1133640870080938600ECE7F0E080818E638083BE
S1133650EDE7F0E08081806180832FBF08950895B5
S11336600895CF92DF92EF92FF920F931F93CF931F
S1133670DF93EC010E94B41B87E090E00E94B01B32
S1133680C880D980EA80FB800091250D1091260D19
S11336902091270D3091280DC01AD10AE20AF30AAD
S11336A0C60ED71EE81EF91EC882D982EA82FB82A2
S11336B06093250D7093260D8093270D9093280D0C
S11336C086E090E00E94B01BCC80DD80EE80FF801D
S11336D00091210D1091220D2091230D3091240D84
S11336E0C01AD10AE20AF30AC60ED71EE81EF91E52
S11336F0CC82DD82EE82FF826093210D7093220DD5
S11337008093230D9093240DDF91CF911F910F91FE
S1133710FF90EF90DF90CF900895FC011482158202
S11337201682178210821182128213820895E9E8A8
S1133730FEE0DC012D913C91119740815181240FD1
S1133740351F31832083EBE8FEE014968D919C9124
S1133750159720813181820F931F9183808308956F
S113376060E070E0CB0108950895CF93DF93EC01FE
S11337704A815B8160E070E08C819D810E946725B5
S11337802A813B8188819981289FA001299F500D1E
S1133790389F500D112460E070E08E819F81DF918D
S11337A0CF910C946725FC018281938120E030E065
S11337B028173907D1F0A481B581A20FB31F4C910A
S11337C0411110C081E08C9380819181289FA001D8
S11337D0299F500D389F500D112486819781840FA5
S11337E0951F08952F5F3F4FE3CF80E090E0089549
S11337F0FC01268137814281538180E090E0841767
S11338009507C9F02617370781F4A481B581A80F5D
S1133810B91F2C91121614F421502C930480F581B5
S1133820E02DE80FF91F80810895A081B1812A0F4E
S11338303B1F0196E4CF8FEF0895FC0186819781A9
S113384068177907A0F0A081B18142815381A49FB8
S11338509001A59F300DB49F300D1124280F391FFE
S113386081E090E06217730720F080E0089580E023
S113387090E00895EF92FF920F931F93CF93DF93FD
S1133880EC018B017A010E94E90BF886EF8265EC6A
S113389072E0C801DF91CF911F910F91FF90EF90DB
S11338A00C940D0C0C94F10B0C948F0CDC011796FA
S11338B0ED91FC9118970190F081E02D309709F07B
S11338C009940895DC011796ED91FC9118970280F4
S11338D0F381E02D309709F0099408958BE29DE07F
S11338E00C94150B90932A0D8093290D08958BE267
S11338F09DE00C94190BEF92FF920F931F93CF93BB
S1133900DF938C01EB017A018BE29DE00E94190B9D
S11339100097D9F0DC0112962D913C9113972C1746
S11339203D0781F41696ED91FC911797309769F055
S11339309701AE01B801DF91CF911F910F91FF90D4
S1133940EF9009940E94820BE3CFDF91CF911F91F6
S11339500F91FF90EF9008950895CF93DF93CEE5F4
S1133960DDE06881798120E030E04CEC5CE188E4C2
S11339709DE00E94CE070E943007688179810E94F1
S11339807C2320E030E040EE5CE1BC0188E39DE074
S1133990DF91CF910C94CE0780915E0D90915F0DD5
S11339A020915C0D30915D0D880F991F2817390700
S11339B008F4C90190935F0D80935E0D0C94AD1CC7
S11339C0CF93DF930E94EA0D0E948E0DEC011982C1
S11339D018820E94771C28813981009719F1FC0113
S11339E040854423F9F0FC0142815381F901EE0F33
S11339F0FF1FEE0FFF1FEC0FFD1F53834283FC01DB
S1133A00448155812F5F3F4FF901EE0FFF1FEE0FE9
S1133A10FF1FEC0FFD1F51834083398328830E94CD
S1133A20820BD9CFC901880F991F880F991F02965D
S1133A300E94890D88819981892B31F08DE29DE066
S1133A40DF91CF910C94D70BDF91CF910895AF9272
S1133A50BF92CF92DF92EF92FF920F931F93CF9377
S1133A60DF9300D0CDB7DEB75B010E948E0D8C01D1
S1133A70FC01E080F180FA82E9820E949B0D9701AB
S1133A80220F331F220F331F2E5F3F4F82179307DE
S1133A90A8F00E5F1F4FC12CD12CCE14DF0471F09F
S1133AA0F8014281538160817181C5010E947B1CB0
S1133AB00C5F1F4FFFEFCF1ADF0AEFCF0F900F906D
S1133AC0DF91CF911F910F91FF90EF90DF90CF90F6
S1133AD0BF90AF9008950F93013059F48091580D21
S1133AE09091590D90935F0D80935E0D0F910C94FE
S1133AF0AD1C0F910895EF92FF920F931F93CF93F4
S1133B00DF938B01EA01790147EC52E0BC018DE2BD
S1133B109DE00E94BB0B1093590D0093580DD09358
S1133B205B0DC0935A0DF0925D0DE0925C0D8BE637
S1133B309DE1DF91CF911F910F91FF90EF900C9435
S1133B40721C0C94E50BE091D302F091D402099518
S1133B50009739F0FC012281338130937E0E20934B
S1133B607D0E0895CF93DF93EC01E091D502F0919F
S1133B70D60209952A813B8130937E0E20937D0ED7
S1133B8021E030E0892B11F420E030E0C901DF911D
S1133B90CF910895E091D702F091D8020994CF9281
S1133BA0DF92EF92FF920F931F93CF93DF93CDB7E2
S1133BB0DEB7E1970FB6F894DEBF0FBECDBF7C0130
S1133BC08E010F5F1F4F81E3F80111928A95E9F787
S1133BD08091620D811107C081E08093620D0E9483
S1133BE030078093630D8091A30E898B8091A10E81
S1133BF08B8B0E944E0E892B11F01C8A03C080917E
S1133C00910E8C8B1D8A21E02F8BE114F104D1F0ED
S1133C1080918F0E9091900E009711F0898F12C0B1
S1133C208091630D811102C02093630D8091630D17
S1133C3091E0980F9093630D898F90E09093900E8C
S1133C4080938F0E82E0D82ED88E8DEC9BEA9B8FCA
S1133C508A8F0E944E0E892B29F0DE8A8FEF89838A
S1133C608A8306C065E77EE0C8010E94F80CDE8AFC
S1133C708DEC9BEA9D8F8C8F61E77EE0CE010996E7
S1133C800E94F80C0E948E0D9FA78EA70E949B0D88
S1133C9099AB88ABC8010E94B4216C01EF2871F084
S1133CA00E94B30D892B41F00E94950DBC01C801FF
S1133CB00E94D721C60102C08FEF9FEFE1960FB695
S1133CC0F894DEBF0FBECDBFDF91CF911F910F914E
S1133CD0FF90EF90DF90CF90089581E090E00C94F6
S1133CE0CF1D80E090E00C94CF1D0F931F93CF93D2
S1133CF0DF93CDB7DEB7E1970FB6F894DEBF0FBE02
S1133D00CDBF0E949B0D8C010E948E0DAE014F5FB2
S1133D105F4FB8010E94AD228C01009719F48FEF18
S1133D209FEF4BC00E946C0D892BC9F3898990E0E9
S1133D309093A40E8093A30E2E89222331F18A8DB1
S1133D409B8D8D3C3BEA930711F0019641F722309D
S1133D5019F028E030E002C022E030E021503109BF
S1133D60C90101961816190684F4E1E0F0E0EC0F9D
S1133D70FD1FE20FF31F80818F3F81F3BE016F5F50
S1133D807F4F85E79EE00E94F80CBE01675F7F4F7E
S1133D9083E79EE00E94F80C8B8990E09093A20E3A
S1133DA08093A10E898D90E09093900E80938F0E56
S1133DB09093980E8093970EC801E1960FB6F894ED
S1133DC0DEBF0FBECDBFDF91CF911F910F9108953C
S1133DD0CF93DF93E091CD02F091CE020995EC01EF
S1133DE097FD0CC00E94100DE0919302F091940293
S1133DF00995892B19F48FEF9FEF01C0CE01DF9154
S1133E00CF91089587B3876087BB88B3866088BBEA
S1133E1080E58DB981E08EB9089520E030E0029606
S1133E20FC0132974081442331F0FC0131974081F9
S1133E30240F311DF4CFC9010895FC01208130E025
S1133E40322F22278181282B02C0220F331F6A952B
S1133E50E2F7832F9927FA01E752FD4F208130E0E2
S1133E608223932328E030E0241B350B02C096956F
S1133E7087952A95E2F708956F927F928F929F9289
S1133E80AF92BF92CF92DF92EF92FF920F931F9364
S1133E90CF93DF938C01EB016A017901283031055E
S1133EA024F4A901B601CE014AC0590123E0B59416
S1133EB0A7942A95E1F74115510521F04801612C99
S1133EC0712C03C0D801FB0120C048E050E0B601CA
S1133ED0CE01860D971D0E941D1FF40181934F0191
S1133EE0FFEF6F1A7F0A6A147B047CF3C501B7FEE7
S1133EF002C080E090E0A7014770552741155105A5
S1133F0011F1080F191FB60118C0CF018C1B9D0BAE
S1133F108A159B051CF481918D93F7CFC501B7FEDB
S1133F2002C080E090E0A701477055274115510574
S1133F3051F0080F191F60E070E08C0F9D1F0E9464
S1133F401D1FF8018083DF91CF911F910F91FF9086
S1133F50EF90DF90CF90BF90AF909F908F907F9025
S1133F606F9008958F929F92AF92BF92CF92DF92FB
S1133F70EF92FF920F931F93CF93DF9300D0CDB7AF
S1133F80DEB70E948E0D8C0182E090E00E946C0DE1
S1133F90892B19F480E090E06BC0D80111968C91C4
S1133FA0119790E0982F88272C91820F911D0E94E1
S1133FB0F60B7C01009771F30E948E0D4C01F70102
S1133FC02681822F86958695869590E0422F4770AC
S1133FD021E030E011F420E030E0820F931F0E94D2
S1133FE06C0D892BB9F2D70114960D911C9115977C
S1133FF0C12CD12CF80180818823C9F1F801A1805A
S1134000B12CB60153E0759567955A95E1F7A60171
S113401047705527680D791D8A3190F09501CE01BE
S113402001960E943C1FD8018C9190E0880F991F43
S1134030BE016F5F7F4F815C914F0E94F80C12C0EC
S11340401A8219829501CE0101960E943C1FD80163
S1134050EC91F0E0EE0FFF1FE558F14F89819A8152
S113406091838083CA0CDB1C0E5F1F4FC3CFC70133
S11340700F900F90DF91CF911F910F91FF90EF90D0
S1134080DF90CF90BF90AF909F908F900895DC0108
S113409050E0E0E1F0E0E61BF70BE21BF30B02C09B
S11340A0440F551FEA95E2F78C91852B8C9311965A
S11340B08C911197842B11968C9308956F927F9213
S11340C08F929F92AF92BF92CF92DF92EF92FF9224
S11340D00F931F93CF93DF938C016B01EA01790156
S11340E0283031051CF44881C8015CC0390173E0F3
S11340F0759467947A95E1F7C114D10421F04A01CB
S1134100A12CB12C03C0D801FA0127C0F4014191BC
S11341104F0128E030E0B601C8018A0D9B1D0E94C2
S11341204720FFEFAF1ABF0AA614B7047CF3C301FC
S113413077FE02C080E090E09701277033272115B5
S1134140310509F43FC0C80FD91F488150E0B601BA
S1134150621B730B685F7F4F1CC0CF018C1B9D0BD0
S1134160861597051CF481918D93F7CFC30177FED3
S113417002C080E090E097012770332721153105B4
S113418009F1C80FD91F488150E068E070E0621B54
S1134190730B02C0559547956A95E2F760E070E0AD
S11341A0800F911FDF91CF911F910F91FF90EF909E
S11341B0DF90CF90BF90AF909F908F907F906F9043
S11341C00C944720DF91CF911F910F91FF90EF90B6
S11341D0DF90CF90BF90AF909F908F907F906F9023
S11341E00895AF92BF92CF92DF92EF92FF920F9316
S11341F01F93CF93DF9300D0CDB7DEB78C01FC01C2
S11342008681E82EE694E694E694F12C282F277014
S113421081E090E011F480E090E0E80EF91EC7011F
S113422002960E94B30D009709F44AC00E94950DAE
S1134230F8012281FC012083F8012381FC01218300
S11342400E94950D02966C01A70160E070E00E9447
S11342506725F80104811581E12CF12CF8012081F6
S1134260222361F1F801A180B12CC70133E09595B7
S113427087953A95E1F7422F50E0B70167707727A9
S11342808C0D9D1D2A3130F0440F551F415C514F58
S113429095010DC0FA01EE0FFF1FE558F14F208183
S11342A031813A8329839501AE014F5F5F4F0E94AC
S11342B05E20EA0CFB1C0E5F1F4FD0CF81E090E024
S11342C00F900F90DF91CF911F910F91FF90EF907E
S11342D0DF90CF90BF90AF900895CF93DF93FC0110
S11342E0DB0185E0EB0119928A95E9F785898370F2
S11342F011F082E08C938789837021F082E012961A
S11343008C9312978589837081F08789837069F013
S1134310238D348D818D928D2817390731F481E0F6
S1134320848B12961C92129701C0148A858983701B
S1134330823021F0833021F080E003C082E001C0AC
S113434088E011968C93119787898370823021F0CD
S1134350833021F080E003C082E001C088E013963E
S11343608C93DF91CF910895CF93DF9300D000D049
S11343701F92CDB7DEB7BE016F5F7F4F0E946D21E4
S1134380898190E003962A81820F911D2B81820FEF
S1134390911D2C81820F911D2D81820F911D0F90F3
S11343A00F900F900F900F90DF91CF9108956F921F
S11343B07F928F929F92AF92BF92CF92DF92EF92B1
S11343C0FF920F931F93CF93DF9300D000D01F92DF
S11343D0CDB7DEB78C017B01BE016F5F7F4F0E94BA
S11343E06D21D80151968C91519780FB662460F819
S11343F0712C83E0660C771C8A95E1F752968C91B8
S1134400529780FB882480F8912C94E0880C991CA6
S11344109A95E1F7862850968C9150978770882A50
S113442053968C91539780FBAA24A0F8B12C25E0D5
S1134430AA0CBB1C2A95E1F78A2854968C915497B0
S113444080FBCC24C0F8D12C36E0CC0CDD1C3A9592
S1134450E1F78C28F701808255962C9155972370AB
S1134460F4E02F9F9001112456968C9156978370F7
S113447040E1849FC0011124282B57968C91A0E41D
S11344808A9FC0011124282BF7012183D801589653
S11344908C91589782838981823049F459968C9102
S11344A0599783835A968C91848375E001C073E095
S11344B06A8150E080E090E09801260F311D452F7D
S11344C0470F0197561751F0F901E80FF91FA08122
S11344D0F701E40FF11DA0835F5FF1CF8B81823080
S11344E089F4F701E40FF11DD8015B968C915B9779
S11344F0808381E0840FF701E80FF11D4E5F5C9625
S11345008C9180836C8150E020E030E0060F111D17
S113451021503109852F840F90E0561751F0F8018E
S1134520E20FF31F7085F701E80FF91F70835F5FD7
S1134530EFCF0F900F900F900F900F90DF91CF91CE
S11345401F910F91FF90EF90DF90CF90BF90AF90AD
S11345509F908F907F906F900895AF92BF92CF926B
S1134560DF92EF92FF920F931F93CF93DF937C011F
S11345706B01EA01633071050CF4AFC0FC0180816A
S113458086FBAA24A0F89181292F269526952370CD
S1134590B92EB294B694B69463E0B622382F37702D
S11345A0388B83FB332730F9398B84FB332730F97D
S11345B03A8B85FB882780F98B8BAC8A2D8B892FCE
S11345C0829583708E8BBF8A8281888F222371F1BA
S11345D03381848190E0982F8827830F911D9A8FCF
S11345E0898F87010B5F1F4F223071F469E572E0F8
S11345F0CE010E94F80CF701868188838581898326
S11346008701095F1F4F1CC02330D1F4F7013D9689
S1134610DE0180E090E03E2F2F2F42914D930196D2
S113462088309105D1F7032F122F0AC087010D5F3F
S11346301F4F69E572E0CA010E94F80C1A8E198EA8
S1134640BB20B1F1A1100DC0F8012081818190E05F
S1134650982F8827820F911D9C8F8B8F0E5F1F4F81
S113466004C0898D9A8D9C8F8B8FF2E0BF120EC08F
S113467069E572E0CE0108960E94F80CF801818188
S11346808887808189870E5F1F4F1AC0F3E0BF12AD
S113469017C087E090E0F801E80FF91F2081FE01C0
S11346A0E81BF90B27870197B0F7085F1F4F08C075
S11346B069E572E0CE0108960E94F80C1C8E1B8EF0
S11346C098012E193F09C601821B930B98AB8FA743
S11346D01EA70DA7C216D3061CF480E090E001C00B
S11346E0C901DF91CF911F910F91FF90EF90DF905F
S11346F0CF90BF90AF900895AA1BBB1B51E107C098
S1134700AA1FBB1FA617B70710F0A61BB70B881F5D
S1134710991F5A95A9F780959095BC01CD010895EC
S1134720EE0FFF1F0590F491E02D0994CF93DF93D2
S11347308230910510F482E090E0E091C80EF0918F
S1134740C90E20E030E0A0E0B0E0309739F14081BC
S1134750518148175907B8F04817590771F48281F5
S11347609381109729F013969C938E9312972CC0E3
S11347709093C90E8093C80E27C02115310531F0DE
S11347804217530718F0A901DB0101C0EF019A0198
S1134790BD01DF010280F381E02DD7CF2115310562
S11347A0F9F0281B390B2430310580F48A819B8170
S11347B06115710521F0FB019383828304C09093FA
S11347C0C90E8093C80EFE01329644C0FE01E20F6A
S11347D0F31F8193919322503109398328833AC07E
S11347E02091C60E3091C70E232B41F42091020173
S11347F0309103013093C70E2093C60E209100011F
S1134800309101012115310541F42DB73EB7409196
S1134810040150910501241B350BE091C60EF09163
S1134820C70EE217F307A0F42E1B3F0B2817390716
S113483078F0AC014E5F5F4F2417350748F04E0FF8
S11348405F1F5093C70E4093C60E8193919302C08D
S1134850E0E0F0E0CF01DF91CF910895CF93DF93B3
S1134860009709F487C0FC01329713821282C09129
S1134870C80ED091C90E209781F420813181280F70
S1134880391F8091C60E9091C70E8217930779F550
S1134890F093C70EE093C60E6DC0DE0120E030E059
S11348A0AE17BF0750F412964D915C9113979D017A
S11348B04115510509F1DA01F3CFB383A283408195
S11348C05181840F951F8A179B0771F48D919C91D8
S11348D01197840F951F02969183808312968D9170
S11348E09C911397938382832115310529F4F093C6
S11348F0C90EE093C80E3EC0D9011396FC93EE9303
S113490012974D915D91A40FB51FEA17FB0779F437
S113491080819181840F951F0296D90111969C93F1
S11349208E938281938113969C938E931297E0E0E9
S1134930F0E08A819B81009719F0FE01EC01F9CF28
S1134940CE01029628813981820F931F2091C60ED1
S11349503091C70E2817390769F4309729F410925B
S1134960C90E1092C80E02C013821282D093C70ED1
S1134970C093C60EDF91CF9108958F929F92AF920C
S1134980BF92CF92DF92EF92FF92CF93DF93EC012D
S1134990688179818A819B81611571058105910501
S11349A021F464E279ED8BE597E02DE133EF41E00A
S11349B050E00E94ED2849015A019B01AC01A7EA8D
S11349C0B1E40E94DA286B017C01ACEEB4EFA501DE
S11349D094010E94E828C60ED71EE81EF91EF7FEB1
S11349E006C081E0C81AD108E10880E8F80AC88244
S11349F0D982EA82FB82C6019F77DF91CF91FF9033
S1134A00EF90DF90CF90BF90AF909F908F900895DC
S1134A100C94BD2486E091E00C94BD24A0E0B0E0A9
S1134A208093060190930701A0930801B0930901B4
S1134A300895FC0188279927E89421912032E9F30D
S1134A40293010F02E30C8F32B3241F02D3239F4D6
S1134A50689404C00E94A125820F911D21912053C6
S1134A602A30C0F31EF4909581959F4F08950F93BB
S1134A701F93CF93DF938C01FC0101900020E9F791
S1134A80CF01801B910B0E949623EC01009719F033
S1134A90B8010E948225CE01DF91CF911F910F9121
S1134AA00895FB01DC0104C08D910190801921F46B
S1134AB041505040C8F7881B990B0895FB01DC0155
S1134AC002C001900D9241505040D8F70895DC0186
S1134AD001C06D9341505040E0F70895FB01DC01A3
S1134AE00D900020E9F7119701900D920020E1F755
S1134AF00895FB01DC018D91019080190110D9F317
S1134B00990B0895FB01DC0101900D920020E1F75F
S1134B100895FC01A081B181AD01109681F03D9111
S1134B20FB01019003160110E1F7C9F7002011F40D
S1134B30D00102C01E921196FC01A083B183CA0168
S1134B4008957AE0979F902D879F802D910D1124D1
S1134B500895CF93DF93CDB7DEB7FE01359661910B
S1134B607191AF018091CC0E9091CD0E0E941226CE
S1134B70DF91CF9108950F931F93CF93DF93CDB718
S1134B80DEB7FE013796619171910CEC1EE0D801FD
S1134B908D919C91DC0113962C91139728601396A8
S1134BA02C93AF010E941226D801ED91FC91238130
S1134BB0277F2383DF91CF911F910F9108956091F7
S1134BC0CC0E7091CD0E0C944A280F931F93CF9363
S1134BD0DF93E091CC0EF091CD0E238121FF1BC019
S1134BE0EC0100E010E089916091CC0E7091CD0E43
S1134BF0DB011896ED91FC911997882331F0099502
S1134C00892B89F30FEF1FEFEECF8AE00995892BEB
S1134C1011F4C80102C08FEF9FEFDF91CF911F9174
S1134C200F9108952F923F924F925F926F927F92CD
S1134C308F929F92AF92BF92CF92DF92EF92FF92A8
S1134C400F931F93CF93DF93CDB7DEB72C970FB697
S1134C50F894DEBF0FBECDBF7C016B018A01FC015D
S1134C6017821682838181FFBDC1CE0101964C015A
S1134C70F7019381F60193FD859193FF81916F0173
S1134C80882309F4ABC1853239F493FD859193FFF0
S1134C9081916F01853229F4B70190E00E944A287E
S1134CA0E7CF512C312C20E02032A0F48B3269F074
S1134CB030F4803259F0833269F420612CC08D3293
S1134CC039F0803339F4216026C02260246023C087
S1134CD0286021C027FD27C030ED380F3A3078F422
S1134CE026FF06C0FAE05F9E300D1124532E13C038
S1134CF08AE0389E300D1124332E20620CC08E328F
S1134D0021F426FD6BC1206406C08C3611F42068A2
S1134D1002C0883641F4F60193FD859193FF819199
S1134D206F018111C1CF982F9F7D9554933028F442
S1134D300C5F1F4FFFE3F9830DC0833631F08337D7
S1134D4071F0833509F05BC022C0F801808189834A
S1134D500E5F1F4F44244394512C540115C0380155
S1134D60F2E06F0E711CF801A080B18026FF03C031
S1134D70652D70E002C06FEF7FEFC5012C870E94A4
S1134D803F282C0183012C852F77222E17C0380150
S1134D90F2E06F0E711CF801A080B18026FF03C001
S1134DA0652D70E002C06FEF7FEFC5012C870E9474
S1134DB034282C012C852068222E830123FC1BC05F
S1134DC0832D90E048165906B0F4B70180E290E0D4
S1134DD00E944A283A94F4CFF50127FC859127FED6
S1134DE081915F01B70190E00E944A2831103A9402
S1134DF0F1E04F1A51084114510471F7E5C08436AB
S1134E0011F0893639F5F80127FF07C060817181F7
S1134E10828193810C5F1F4F08C060817181882754
S1134E2077FD8095982F0E5F1F4F2F76B22E97FF38
S1134E3009C090958095709561957F4F8F4F9F4FD6
S1134E402068B22E2AE030E0A4010E947C28A82E1B
S1134E50A81844C0853729F42F7EB22E2AE030E00A
S1134E6025C0F22FF97FBF2E8F36C1F018F4883594
S1134E7079F0B4C0803719F0883721F0AFC02F2FF4
S1134E802061B22EB4FE0DC08B2D8460B82E09C0F3
S1134E9024FF0AC09F2F9660B92E06C028E030E098
S1134EA005C020E130E002C020E132E0F801B7FEA5
S1134EB007C060817181828193810C5F1F4F06C09E
S1134EC06081718180E090E00E5F1F4FA4010E9419
S1134ED07C28A82EA818FB2DFF77BF2EB6FE0BC08A
S1134EE02B2D2E7FA51450F4B4FE0AC0B2FC08C0CA
S1134EF02B2D2E7E05C07A2C2B2D03C07A2C01C0BD
S1134F00752C24FF0DC0FE01EA0DF11D8081803354
S1134F1011F4297E09C022FF06C07394739404C05F
S1134F20822F867809F0739423FD13C020FF06C0F6
S1134F305A2C731418F4530C5718732C731468F404
S1134F40B70180E290E02C870E944A2873942C8554
S1134F50F5CF731410F4371801C0312C24FF12C09C
S1134F60B70180E390E02C870E944A282C8522FF19
S1134F7017C021FF03C088E590E002C088E790E0F5
S1134F80B7010CC0822F867859F021FD02C080E25F
S1134F9001C08BE227FD8DE2B70190E00E944A2810
S1134FA0A51438F4B70180E390E00E944A285A948B
S1134FB0F7CFAA94F401EA0DF11D8081B70190E0C6
S1134FC00E944A28A110F5CF332009F451CEB7012D
S1134FD080E290E00E944A283A94F6CFF701868155
S1134FE0978102C08FEF9FEF2C960FB6F894DEBF27
S1134FF00FBECDBFDF91CF911F910F91FF90EF9026
S1135000DF90CF90BF90AF909F908F907F906F90E4
S11350105F904F903F902F900895DC01CB01FC01ED
S1135020E199FECF06C0FFBBEEBBE09A31960DB20C
S11350300D9241505040B8F70895DC01CB0103C0F4
S11350402D910E94282841505040D0F70895262FD2
S1135050E199FECF9FBB8EBB2DBB0FB6F894E29AAD
S1135060E19A0FBE01960895FC01059061507040CD
S11350700110D8F7809590958E0F9F1F0895FC011D
S11350806150704001900110D8F7809590958E0F73
S11350909F1F08950F931F93CF93DF93182F092F0A
S11350A0EB018B8181FD03C08FEF9FEF20C082FF56
S11350B010C04E815F812C813D81421753077CF4DF
S11350C0E881F9819F012F5F3F4F39832883108343
S11350D006C0E885F985812F0995892B29F72E814A
S11350E03F812F5F3F4F3F832E83812F902FDF918E
S11350F0CF911F910F910895FA01AA27283051F1F9
S1135100203181F1E8946F936E7F6E5F7F4F8F4FF4
S11351109F4FAF4FB1E03ED0B4E03CD0670F781F53
S1135120891F9A1FA11D680F791F8A1F911DA11D38
S11351306A0F711D811D911DA11D20D009F4689471
S11351403F912AE0269F11243019305D3193DEF619
S1135150CF010895462F4770405D4193B3E00FD0CF
S1135160C9F7F6CF462F4F70405D4A3318F0495DBA
S113517031FD4052419302D0A9F7EACFB4E0A6959D
S11351809795879577956795BA95C9F700976105BF
S1135190710508959B01AC010A2E06945795479515
S11351A037952795BA95C9F7620F731F841F951F0A
S11351B0A01D08950E940C29A59F900DB49F900DE9
S11351C0A49F800D911D11240895B7FF0C94DA2833
S11351D00E94DA28821B930B0895052E97FB1EF478
S11351E000940E94042957FD07D00E941B2907FC44
S11351F003D04EF40C940429509540953095219594
S11352003F4F4F4F5F4F08959095809570956195EE
S11352107F4F8F4F9F4F0895A29FB001B39FC0014E
S1135220A39F700D811D1124911DB29F700D811DCE
S11352301124911D0895A1E21A2EAA1BBB1BFD0186
S11352400DC0AA1FBB1FEE1FFF1FA217B307E40761
S1135250F50720F0A21BB30BE40BF50B661F771FB9
S1135260881F991F1A9469F7609570958095909599
S11152709B01AC01BD01CF010895F894FFCF5E
S113527E0000D00E20000100000000003B030000DF
S113528E00000000000200000000450400000000C1
S113529E00005E0700000000000048080000000047
S11352AEBE000800040C1406020008001C0C0C0CB2
S11352BE05000800510C290C06000800890C590C35
S11352CE1A000200C50C910C07000500030006002D
S11352DE0400040DEC0C2D0057030B0427000000F2
S11352EE821700000000556E69636173743A2025BD
S11352FE642064697A2025730A00456E7669616EAE
S113530E646F202873656E6442726F6164636173A7
S113531E74292025730A00456E7669616E646F20C8
S113532E2873656E64556E696361737429202573E1
S113533E0A0068656C6C6F5F636F6F7264696E618F
S113534E746F72006F6B006C655374617475735F68
S113535E6D6F74657300636F6E6669677572610055
S113536E73746172740073746F700062726F61642F
S113537E636173745F7374617475730073746174B1
S113538E75735F6D6F74653A0025642C0066696DE4
S113539E002F003000737461727461646F732000A7
S11353AED5000000D80000000A010000970B8B0BFB
S11353BE1A10000052696D650044027D0C4B0CB14D
S11353CE0CA50C1B101A100000000043534D410095
S11353DE5B02640FD00FE30EE80EED0EF20E43588F
S11353EE2D4D4143006E02ED118012D814FC1404AD
S11353FE12CD1197116E756C6C7365630085028CFA
S113540E158E1599159C15A1152F1AEC16AF182A81
S113541E191B17E61785168A16B117C7176519E9EA
S113542E19BF15C215001FFF1BFD17FB13F90FF64D
S113543E0BF107E7030000271DAC1C711E6D1EE85F
S113544E1E751EB21FF1200D1F0080C0E0F0F8FC87
S105545EFEFF4B
S9030000FC
